:020000040800F2
:100000000004002001C00008C1C20008C1C20008ED
:10001000C1C20008C1C20008C1C20008C1C20008B4
:10002000C1C20008C1C20008C1C20008C1C20008A4
:10003000C1C20008C1C2000831CE000851DE00086C
:10004000C1C2000851E1000841E2000871E2000865
:10005000C1C20008C1C2000871DF0008A1DF0008AA
:10006000D1DF000801E0000831E00008C1D9000834
:10007000F1D9000821DA000851DA000881DA000815
:10008000B1DA0008E1DA000801DF000861E50008E4
:10009000A1E5000801E6000861E6000861E000084B
:1000A000C1C20008C1C20008C1C20008C1C2000824
:1000B000C1C2000871F70008C1C2000821EB0008A6
:1000C00041EB000871EB000891EB0008C1C2000889
:1000D000C1C20008C1C20008C1C20008C1C20008F4
:1000E000D1E0000881E10008B1E10008C1C20008C8
:1000F000C1C20008C1C20008C1C2000811DB00086B
:10010000C1C20008C1C20008C1C20008C1C20008C3
:10011000C1C20008C1C20008C1C20008C1C20008B3
:1001200041DB000871DB0008A1DB0008D1DB00081F
:1001300001DC0008C1C20008E1E10008C1C20008FA
:10014000C1C20008C1C20008C1C2000861F50008B0
:1001500031DC000861DC000891DC0008C1C2000845
:10016000C1C20008C1C20008C1C20008C1C2000863
:1001700011E20008C1C20008C1C20008C1C20008E3
:10018000C1C20008C1C20008C1C20008C1C2000843
:10019000C1C20008C1C20008C1C20008C1C2000833
:1001A000C1C20008C1C20008C1C20008C1C2000823
:1001B000C1C20008C1C20008C1C20008C1C2000813
:10C0000072B6334880F3098840F20000CCF2000099
:10C010004EF63471CEF200010860BFF34F8FBFF3CC
:10C020006F8F40F20000C0F2F0004EF68851CEF261
:10C0300000010860BFF34F8FBFF36F8F4FF0000018
:10C04000E1EE100A4EF63C71CEF2000108600620C7
:10C0500080F31488BFF36F8F00F01AF903F0D0FB60
:10C060001C481D491D4A91423CBF41F8040BFAE7A8
:10C070001B49174A91423CBF41F8040BFAE71949A2
:10C08000194A1A4B9A423EBF51F8040B42F8040B6E
:10C09000F8E700201649174A91423CBF41F8040BCB
:10C0A000FAE700F0FDF8144C144DAC4203DA54F8F2
:10C0B000041B8847F9E704F073F8114C114DAC42AA
:10C0C00003DA54F8041B8847F9E700F0F1B80000E0
:10C0D00000080020555555550000002000040020A0
:10C0E00000040020B81201080008002038080020D1
:10C0F000380800207857002000C0000800C0000861
:10C1000000C0000800C0000800000000000000009F
:10C110002DE9F04F2DED108AC1F80CD0D0F80CD0DD
:10C12000BDEC108ABDE8F08F62B62846A04700201B
:10C1300000F0AEFB00F0D4FA4EF60453CEF200034A
:10C140004FF080521A6062B6FEE700000000000067
:10C15000844641EA000313F003036DD1403A41D312
:10C1600051F8043B40F8043B51F8043B40F8043BD1
:10C1700051F8043B40F8043B51F8043B40F8043BC1
:10C1800051F8043B40F8043B51F8043B40F8043BB1
:10C1900051F8043B40F8043B51F8043B40F8043BA1
:10C1A00051F8043B40F8043B51F8043B40F8043B91
:10C1B00051F8043B40F8043B51F8043B40F8043B81
:10C1C00051F8043B40F8043B51F8043B40F8043B71
:10C1D00051F8043B40F8043B51F8043B40F8043B61
:10C1E000403ABDD2303211D351F8043B40F8043B01
:10C1F00051F8043B40F8043B51F8043B40F8043B41
:10C2000051F8043B40F8043B103AEDD20C3205D310
:10C2100051F8043B40F8043B043AF9D2043208D008
:10C22000D2071CBF11F8013B00F8013B01D30B887A
:10C2300003806046704700BF082A13D38B078DD058
:10C2400010F003038AD0C3F10403D21ADB071CBF2A
:10C2500011F8013B00F8013B80D331F8023B20F894
:10C26000023B7BE7043AD9D3013A11F8013B00F8CD
:10C27000013BF9D20B7803704B7843708B78837055
:10C280006046704700000000000000000000000051
:10C29000704700BF00000000000000000000000028
:10C2A000704700BF00000000000000000000000018
:10C2B000FEE700BF000000000000000000000000DA
:10C2C000FEE700BF000000000000000000000000CA
:10C2D000FEE700BF000000000000000000000000BA
:10C2E0001D4B1E4A1E48F0B500249C60DF681D4EA1
:10C2F0001D4D4FF6FF0139400A43DA60F26842F003
:10C300008072F260026842F00102026083B083F83A
:10C31000224000F0E5F800F06BF800F041FB00F07F
:10C3200047FD00F075FD2846402100F0E9F9A5F130
:10C33000300301229861027762B69B690B499961CB
:10C3400005F1500000944FF4EC71094B00F038FAFD
:10C35000084B836103B0F0BD00ED00E00003FA0577
:10C36000001000E0F0ED00E068080020200B01085C
:10C37000D1C20008100B01080000000000000000FE
:10C3800070B5114CA269D37F0BB1013BD377116A11
:10C39000E3690E4E01311162A26AB34202F1010259
:10C3A000A26210D09D68013D9D6065B91A68D96888
:10C3B000DD605660E26162B61869884772B6E3696B
:10C3C0009A68002AF2D070BD380800205408002076
:10C3D000034A516853685B1A9842FBD8704700BF04
:10C3E000001000E00000000000000000000000005D
:10C3F000054B4FF0FF3003F11C0200215862996297
:10C40000DA611A62704700BF38080020000000009F
:10C4100070B40D4EF469A5680361A942C26004D9E5
:10C420002468491BA5688D42FAD3636843600460A1
:10C43000186060608160A3684FF0FF32591AA160F4
:10C44000726270BC704700BF380800200000000016
:10C4500003688268416830B49D68064C2A449A603B
:10C460000B60056800224FF0FF336960C2606362B1
:10C4700030BC7047380800200000000000000000B9
:10C4800010B472B6037F072B0ED8DFE803F01D0D42
:10C490000D2108040D08426A93680133936090E807
:10C4A0000C001A60026853604FF0FF34002281686C
:10C4B000094B446202771B689A688A42FBD25A6829
:10C4C000426003601060586062B65DF8044B7047CC
:10C4D000436A00221A60E7E73808002000000000E5
:10C4E000034B00221B605B601B615B619A607047BD
:10C4F00038080020000000000000000000000000DC
:10C5000000228168084B10B4044602771B689A68C1
:10C510008A42FBD25A6862602360204614605C60E5
:10C520005DF8044B704700BF380800200000000091
:10C53000084B30B41A6899691468087701250420FB
:10C54000C877636015771C60104630BC9A61FFF7AE
:10C55000DFBD00BF38080020000000000000000020
:10C5600030B54B1C87B012D00C4C0D4AA369054660
:10C5700001A8FFF74DFF2846FFF7DAFF049B13B130
:10C5800001A8FFF765FFA369586A07B030BD034CE7
:10C59000FFF7CEFFA369586A07B030BD3808002006
:10C5A00081C400080000000000000000000000003E
:10C5B000144B70B49E6984680546B0686962844211
:10C5C0004FF000020BD82A771B689A689442FBD977
:10C5D0005A686A602B6015605D6070BC7047327786
:10C5E0001A46126891688842FBD95068706001242D
:10C5F0003260066056602C77314628469D6170BCDB
:10C60000FFF786BD38080020000000000000000091
:10C61000084B9A691B68D17F9B68906821B9834257
:10C6200034BF002001207047834294BF00200120C6
:10C63000704700BF38080020000000000000000024
:10C640000E4A1068F0B40368946913600127042649
:10C650000025A1685A6007779061E677257700E0AA
:10C660001B689A688A42FBD25A686260236021463E
:10C6700014605C60F0BCFFF74BBD00BF38080020C1
:10C680000D4A106870B40368946913600126002590
:10C69000A1685A6006779061257700E01B689A6868
:10C6A0008A42FBD85A6862602360214614605C604D
:10C6B00070BCFFF72DBD00BF38080020000000004F
:10C6C000044B1A689B6992689B689A4200D870472D
:10C6D000FFF7D6BF3808002000000000000000006F
:10C6E000034B9B69DB7F0BB1FFF7CABFFFF7A8BF06
:10C6F00038080020000000000000000000000000DA
:10C700002DE9F041114C016466694661002200F197
:10C710002C054FF002084FF0040C4FF0010E00F111
:10C7200028078160046180F81C8080F81FC080F8B1
:10C730001EE04277C263826302628261306160619F
:10C740008762C5620563BDE8F08100BF380800203C
:10C750002DE9F04F6439184FDFF86090D7F814E0F6
:10C76000099E01440025C1604FF0020B0B644FF09D
:10C77000040A00F12C034FF0010800F1280C4E646C
:10C78000C1F8609082600761C0F814E0026480F82C
:10C790001CB080F81FA080F81E804577C5638563B4
:10C7A00005628561CEF81000C0F828C07861C362C8
:10C7B0000363BDE8F08F00BF3808002029C10008DE
:10C7C0002DE9F84F044672B61A4EDFF86CA077696F
:10C7D00064390144C16000250B6400F12C0B4FF05B
:10C7E000010C00F1280E0A9B4B644FF002094FF038
:10C7F0000408C1F860A0826006614761026480F8A5
:10C800001C9080F81F8080F81EC04577C563856343
:10C810000562856129463861C0F828E0C0F82CB06F
:10C82000C0F830B07061FFF7C3FE62B62046BDE8C5
:10C83000F88F00BF3808002029C100080000000060
:10C8400008B5014672B60820FFF78AFE62B608BD39
:10C8500038B50E4B9C69A36A606204F128059D42BD
:10C8600007D01A68A2621846FFF74AFEA36AAB42D5
:10C87000F7D1637F9B0704D1636922691A6122693A
:10C8800053610F20BDE83840FFF752BE3808002042
:10C8900072B6FFF7DDBF00BF00000000000000001F
:10C8A00010B5054CA369036002465A620320FFF7E6
:10C8B0003FFEA369586A10BD380800200000000040
:10C8C00003682BB10022026018465962FFF718BEB8
:10C8D000704700BF000000000000000000000000E2
:10C8E00069B1084B10B4024644689B69042083E890
:10C8F0001400236053605DF8044BFFF731BE4FF026
:10C90000FF307047380800200000000000000000E1
:10C9100038B50368984204460D4609D01A6822606B
:10C92000184654605D62FFF7EBFD23689C42F5D129
:10C9300038BD00BF00000000000000000000000043
:10C94000014B5B6883607047001000E0000000004E
:10C950000F4B10495A688368F0B48F6FC6684168FE
:10C96000D0E90445D31ADB1BE41845F10005013674
:10C970008B42C6608360C0E9044505D802689342D3
:10C9800038BF0360F0BC70474360F0BC704700BF25
:10C99000001000E038080020000000000000000047
:10C9A000D0B50C4C86B000234FF0FF32684600260D
:10C9B0000027A3670193029303930092CDE90467D4
:10C9C000FFF7BEFF6846FFF7C3FF029BA36706B0F1
:10C9D000D0BD00BF380800200000000000000000AB
:10C9E0000023006040608360704700BF00000000CB
:10C9F000304B826870B59C69002A55D0A168936855
:10CA00009942054606D9137F9160062B33D0072B38
:10CA10001DD09BB12B4603E09968A268914202D3D6
:10CA20001B689D42F8D15A686260236014605C60A4
:10CA300065620620BDE87040FFF77ABD92E80A0003
:10CA40001960116810464B60FFF75AFDE2E792E863
:10CA500009001860566A10684360334602E098681F
:10CA6000884202D31B689E42F9D159685160136015
:10CA70000A605A60CEE792E809001860566A1068AA
:10CA80004360334602E09868884202D31B689E42A6
:10CA9000F9D15968516013600A605A60B268A168A0
:10CAA00093688B42AFD3B5E7E36BC3608460E06308
:10CAB00070BD00BF3808002000000000000000002A
:10CAC00008B572B6FFF794FF62B608BD000000001B
:10CAD000144B70B59D6972B60468C368EB63A042DD
:10CAE0001BD0296C4BB11A68934203D092689142D3
:10CAF00038BF1146DB68002BF5D103462268E66B90
:10CB0000A96020461A6053609C60DE60E363FFF713
:10CB1000F7FCFFF7D5FD62B670BD0023836062B6F7
:10CB200070BD00BF380800200000000000000000B9
:10CB3000836B027F19430A2A81630AD00B2A00D033
:10CB40007047436A19408B42FAD100234362FFF7D2
:10CB5000D7BC436A1942F8D1704700BF00000000FB
:10CB600070B50468A04206460D460DD0E3682B431D
:10CB7000E36015B12269134203D06068A168FFF732
:10CB8000D7FF2468A642F1D170BD00BF00000000AD
:10CB900008B572B6FFF7CCFFFFF792FD62B608BD8D
:10CBA00038B50A4B9D6972B6AB6B10EA030406D127
:10CBB000044668620A20FFF7BBFCAB6B1C4023EA0B
:10CBC0000403AB6362B6204638BD00BF38080020BE
:10CBD00030B4029C046200250A4485600261006052
:10CBE0004060C16081614161C36130BC704700BF7A
:10CBF0000021C2688160826142616FF00101FFF72C
:10CC000087BE00BF00000000000000000000000020
:10CC100038B50D46044672B6C3692BB1984703E098
:10CC2000FFF75EFE002811DBA36820462946002B93
:10CC3000F6D0A169A36825694A1C013BAA42A360FA
:10CC4000A26128BFE368087828BFA36162B638BD37
:10CC50002DE9F8430446884691461D46C76972B6D9
:10CC600000262FB12046B84702E0FFF739FEC8B9C9
:10CC7000A36820462946002BF7D0A269A368511C5F
:10CC8000013BA161A360137808F8013B2369A26905
:10CC90009A4224BFE368A36162B60136B14502D06F
:10CCA00072B6DEE762B63046BDE8F88300000000E9
:10CCB00030B4029C04628D1805610060406082609F
:10CCC000C16081614161C36130BC704700000000F8
:10CCD00010B40269C4688461121B44616FF00101E1
:10CCE00082605DF8044BFFF713BE00BF0000000038
:10CCF00070B504460E46154672B603E0FFF7F0FD28
:10CD0000002818DBA36820462946002BF6D062696C
:10CD1000A368511C013B6161A360167023696269BD
:10CD20009A4224BFE3686361E3690BB120469847E8
:10CD300062B6002070BD62B670BD00BF000000008A
:10CD40002DE9F04704460D4616469946D0F81C805A
:10CD500072B60027A36805F1010A2046F3B16269A3
:10CD6000A368511C013B6161A3602B781370236998
:10CD700062699A4224BFE3686361B8F1000F00D092
:10CD8000C04762B6013E07F101070ED072B6A36834
:10CD9000554605F1010A2046002BE0D120464946C0
:10CDA000FFF79EFD0028D5D062B63846BDE8F08773
:10CDB000054A064B0648074922F0070223F00703FD
:10CDC00002600B60704700BF7F5700200000022008
:10CDD000940A0020900A00200000000000000000DB
:10CDE00010B472B6084C094B22681968C31D23F0B1
:10CDF0000703891A8B429DBF9B18236010460020B1
:10CE000062B65DF8044B7047940A0020900A002037
:10CE1000044B054A1A6003F1100000229A60DA60A0
:10CE2000FFF7DEBD980A0020E1CD000800000000F9
:10CE3000054A536823F001035360EFF30983683315
:10CE400083F30988704700BF30EF00E00000000066
:10CE500072B6114B5B681B0501D462B6704710B502
:10CE6000F1EE103AEFF309840C4B4FF08072DB685F
:10CE700044F8083C44F84C2CA4F1680383F3098877
:10CE8000FFF7C6FB18B1064B44F8503C10BD054BEC
:10CE900044F8503C10BD00BF00ED00E030EF00E072
:10CEA00035C1000838C10008000000000000000083
:10CEB00008B500F02DFF0C4801F022FC00F020F82E
:10CEC00000F036F800F064F800F092F800F0A0F8F6
:10CED00000F04EFA00F05CFA00F052F902F098FC13
:10CEE000BDE8084000F004B8A00C010800000000F4
:10CEF00000F0BEBF000000000000000000000000C5
:10CF000000F0C6BF000000000000000000000000AC
:10CF100000230122027043608360C36003614361A8
:10CF20001830FFF75DBD00BF0000000000000000EA
:10CF300001F0CEBB00000000000000000000000077
:10CF4000F0B500F1080200F110034FF0010C4FF0B2
:10CF5000000E00F1180700F11C0600F1200500F199
:10CF6000240400F1280180F800C0C0F804E08761C3
:10CF7000C6610562446281628260C260036143618E
:10CF8000F0BD00BF00000000000000000000000035
:10CF900001F0C6B900000000000000000000000021
:10CFA0000122002302704360704700BF00000000B0
:10CFB00010B5044672B6416001F022FA02232370D4
:10CFC00062B610BD0000000000000000000000007C
:10CFD00008B572B601F0ACF962B608BD00000000F9
:10CFE00008B572B601F0F4F962B608BD00000000A1
:10CFF00001F0E6BD0000000000000000000000009D
:10D0000001220023027043600C30FFF7E9BC00BF2F
:10D0100002F0E6BB0000000000000000000000007D
:10D020000023012202704360C3600374704700BF95
:10D0300010B5046AD4F8542213681978042900D072
:10D0400010BD217A0229FBD111791A8901238B4065
:10D050001342F5D1226CE36BA16BD31A5B1AEFD0AC
:10D0600062B6D4F854221068117904F1300200F04D
:10D07000E7F972B6D4F85432BDE81040186819794F
:10D0800000F006BA000000000000000000000000F0
:10D0900010B5046AD4F8542213681978042900D012
:10D0A00010BD217A0229FBD15179588903EB810304
:10D0B0000122DB688A4002425B8AF1D1A269E16900
:10D0C0006069891A0A1A9342EAD862B6B2FBF3F28F
:10D0D000D4F8541203FB02F30868497904F10C02F6
:10D0E00000F09EF972B6D4F85432BDE810401868CA
:10D0F000597900F0B5B900BF000000000000000041
:10D100000C30FFF7A5BD00BF0000000000000000CC
:10D110000C304FF0FF33FFF79BBD00BF0000000055
:10D120003030FFF70DBE00BF00000000000000001F
:10D1300030304FF0FF33FFF703BE00BF00000000A8
:10D140000C30FFF765BD00BF0000000000000000CC
:10D150000C304FF0FF31FFF75BBD00BF0000000057
:10D160003030FFF7C5BD00BF000000000000000028
:10D1700030304FF0FF32FFF7BBBD00BF00000000B2
:10D18000704700BF00000000000000000000000029
:10D1900010B503460E4A43F8042B82B00446012220
:10D1A000009004F15401436002720A4B0C304FF4BA
:10D1B0008072FFF70DFD009404F1300004F5AA71B0
:10D1C0004FF48072044BFFF773FD02B010BD00BF37
:10D1D000400B010891D0000831D000080000000089
:10D1E0000B6872B60A7903EB820290614A790932C0
:10D1F00043F822008A7912B103EB8203986102237B
:10D20000C0F85412037262B6704700BF00000000FD
:10D2100070B5D0F8543200F10C06044630461D6853
:10D22000FFF7E6FC04F13000FFF752FD201D01215D
:10D23000FFF796FCD4F85432597905EB8103284660
:10D24000DB6832465B8A00F0EBF8D4F854322846AB
:10D250005979BDE8704000F003B900BF000000003C
:10D2600090F8443003F06003202B01D00020704779
:10D2700090F84530212B03D0222B09D0202BF5D15B
:10D28000064B836307220023C263036401207047B7
:10D2900000238363C36303640120704700080020F8
:10D2A00000EB810370B59C699CB10E46054672B6D1
:10D2B0000821201DFFF754FC226CE36BA16BD31AED
:10D2C0005B1A0BD105EB8603DB685A6952680AB911
:10D2D00062B670BD1B8A013B1340F9D162B604F1FE
:10D2E00030022846314600F0ABF872B62846314687
:10D2F00000F0CEF8ECE700BF0000000000000000E6
:10D3000001F109032DE9F04150F8236096B1804600
:10D310000F4672B604217018FFF722FC08EB870352
:10D32000B469DA68F5697369518A2D1BEC1AA14258
:10D3300002D962B6BDE8F08162B6B4FBF1F306F142
:10D340000C0201FB03F34046394600F069F872B65F
:10D350004046394600F084F8EBE700BF00000000CB
:10D36000704700BF00000000000000000000000047
:10D3700002F0D6B90000000000000000000000002C
:10D38000002301220270436083600C30FFF728BB4A
:10D3900001F0FEBD000000000000000000000000E1
:10D3A0000023012202704360C36183620362C3628F
:10D3B0004362036303814381704700BF00000000A4
:10D3C00010B5044672B60023C360036143618361F4
:10D3D000416001F0F5FD0223237062B610BD00BF6D
:10D3E00070B50646506914460D4618B10021142246
:10D3F00003F03EFBA06918B10021142203F038FBB2
:10D4000006EB85033046DC602946BDE8704001F03C
:10D41000C7BE00BF000000000000000000000000C8
:10D4200070B400EB81040126E468A4690025E26081
:10D4300063602670A56070BC01F092BF0000000020
:10D4400070B400EB81040126E46864690025E260A1
:10D4500063602670A56070BC01F0FABF0000000098
:10D46000012270B502FA01F344899BB213EA040663
:10D4700001D0104670BD2343438102F0E9F83046E5
:10D4800070BD00BF000000000000000000000000B0
:10D49000012270B502FA01F304899BB213EA040673
:10D4A00001D0104670BD2343038102F0E1F83046FD
:10D4B00070BD00BF00000000000000000000000080
:10D4C000002202210170A0F84C2080F84E2080F844
:10D4D0004F2002814281C26002614261826180F814
:10D4E000342001F0E5BD00BF000000000000000096
:10D4F000F8B50023044680F8343000F1440201F00E
:10D500001FFF63689B684BB32046984730B3E56BB9
:10D5100094F8443094F84B1094F84A2042EA0122DF
:10D52000AA423CBFE263154613F0800FE36840F067
:10D530008180002D69D15B69052284F83420204662
:10D540001D70DD605D609D60294601F081FF72B64F
:10D5500020462946FFF79CFF62B6F8BD94F8443098
:10D5600013F0600711D02046002102F0A9F82046F0
:10D57000002102F095F863681B6813B1204605216D
:10D580009847062384F83430F8BD94F8455003F0EA
:10D590007F0242EA0526B6F5407F00F0F68016D9F4
:10D5A000B6F5C06F00F0D8806DD9B6F5106F7DD09C
:10D5B00040F60242964200F0FB80B6F5006FD2D1F1
:10D5C00004F14F0201252764A263E563A2E7022E5E
:10D5D00000F0AB8040F2A080B6F5807F00F08C8038
:10D5E000B6F5817FBFD194F84620002ABBD194F8CC
:10D5F000482012F00F0154D01206204600F100819D
:10D6000002F06EF894F844304BE09B69A26B002660
:10D61000042184F8341020463146DA605D601E70C3
:10D620009E6001F09DFE72B620463146FFF718FF5E
:10D6300062B6F8BDA5B15B69A26B0026012184F832
:10D64000341020463146DA605D601E709E6001F045
:10D65000FFFE72B620463146FFF71AFF62B6F8BDEC
:10D660009B69032284F8342020461D70DD605D60D4
:10D670009D60294601F074FE72B620462946FFF7E8
:10D68000EFFE62B6F8BD40F20232964221D0B6F506
:10D69000A06F7FF468AFB4F84420B2F5A06F00F03B
:10D6A0009D800025A563E563256433E794F8462053
:10D6B00084F84F20002A40F08280032222706268A2
:10D6C0001268002AEDD020460221904794F8443099
:10D6D000E7E794F84620002A7FF445AF94F8482005
:10D6E00012F00F01DDD01306204600F18E8001F00C
:10D6F000D7FF94F84430D4E794F84620012A7FF409
:10D7000032AFB4F84C20A76322F00202E76327642B
:10D710003D46A4F84C20FDE6002E46D104F14C0213
:10D7200002252664A263E563F4E694F8481011F03C
:10D73000800F204601F00F0144D101F0E1FD0128E6
:10D7400044D002287FF40FAF324BA363E063276419
:10D75000054694F84430DDE6626894F8490094F890
:10D760004830556894F8471094F8462043EA00235F
:10D770002046A84700283FF4F6AE43680568E563F5
:10D78000A363276494F84430C4E694F84620012A41
:10D790007FF4E9AEB4F84C20A76342F00202E763DD
:10D7A00027643D46A4F84C20B4E6012E7FF4DBAE9E
:10D7B000194AA26302250022E5632264AAE6042234
:10D7C00022707CE701F0ACFD0128BAD1134BA363B2
:10D7D000E6632764354694F844309BE694F8463077
:10D7E00084F84E30204601F0CBFC63681B6813B10F
:10D7F000204601219847032294F84430227050E7D4
:10D8000001F07EFF94F844304BE701F059FF94F8A3
:10D81000443046E7700B0108600B0108800B0108DB
:10D8200038B590F834300446062B15D8DFE803F0FD
:10D8300004311C0404150400002101F041FF2046BE
:10D84000002101F02DFF63681B6813B120460521FC
:10D850009847062384F8343038BD036C03B19847E9
:10D86000002384F8343038BDC3689B690025032247
:10D8700084F8342029461D70DD605D609D6020467F
:10D8800001F06EFD72B620462946FFF7E9FD62B64B
:10D8900038BD90F84B2090F84A30C16B43EA022320
:10D8A0008B42C368E1D91D8AB1FBF5F205FB121565
:10D8B000002DDAD15B6929461D70DD605D609D60D9
:10D8C00001F0C6FD72B629462046FFF7E1FD62B6BB
:10D8D000022384F8343038BD00000000000000004E
:10D8E00090F83420062A38B50AD80123934013F063
:10D8F000670F044611D113F0080502D1DB061DD4D1
:10D9000038BDC3689B699B68002BF9D1036C03B1D8
:10D910009847002384F8343038BD002101F0D0FE50
:10D920002046002101F0BCFE63681B6813B120464D
:10D9300005219847062384F8343038BDC3685B69F5
:10D94000052280F8342029461D70DD605D609D60F1
:10D9500001F07EFD72B620462946FFF799FD62B6BA
:10D9600038BD00BF00000000000000000000000003
:10D9700043099B0010B403F1604300F1604404F5D7
:10D98000614403F56143090100F01F000122824058
:10D99000C9B284F80013C3F880211A605DF8044B03
:10D9A000704700BF00000000000000000000000001
:10D9B00000F1604000F56D400901C9B20176704781
:10D9C00008B5074B074A196801F03D0199601368D3
:10D9D0000BB150689847BDE80840FFF739BA00BF5F
:10D9E00000600240B80A00200000000000000000B3
:10D9F000084B094819688268890901F03D0110B592
:10DA00008C019C600AB1C0689047BDE81040FFF7E8
:10DA10001FBA00BF00600240B80A002000000000EA
:10DA2000084B094819680269090C01F03D0110B55D
:10DA30000C049C600AB140699047BDE81040FFF7B4
:10DA400007BA00BF00600240B80A002000000000D2
:10DA5000084B094819688269890D01F03D0110B52C
:10DA60008C059C600AB1C0699047BDE81040FFF783
:10DA7000EFB900BF00600240B80A002000000000BB
:10DA800008B5074B07485968026A01F03D01D960A3
:10DA90000AB1406A9047BDE80840FFF7D9B900BF16
:10DAA00000600240B80A00200000000000000000F2
:10DAB000084B09485968826A890901F03D0110B58F
:10DAC0008C01DC600AB1C06A9047BDE81040FFF7E6
:10DAD000BFB900BF00600240B80A0020000000008B
:10DAE000084B09485968026B090C01F03D0110B55B
:10DAF0000C04DC600AB1406B9047BDE81040FFF7B2
:10DB0000A7B900BF00600240B80A00200000000072
:10DB1000084B09485968826B890D01F03D0110B529
:10DB20008C05DC600AB1C06B9047BDE81040FFF780
:10DB30008FB900BF00600240B80A0020000000005A
:10DB400008B5074B07481968026C01F03D01996060
:10DB50000AB1406C9047BDE80840FFF779B900BFB3
:10DB600000640240B80A002000000000000000002D
:10DB7000084B09481968826C890901F03D0110B50C
:10DB80008C019C600AB1C06C9047BDE81040FFF763
:10DB90005FB900BF00640240B80A00200000000026
:10DBA000084B09481968026D090C01F03D0110B5D8
:10DBB0000C049C600AB1406D9047BDE81040FFF72F
:10DBC00047B900BF00640240B80A0020000000000E
:10DBD000084B09481968826D890D01F03D0110B5A7
:10DBE0008C059C600AB1C06D9047BDE81040FFF7FE
:10DBF0002FB900BF00640240B80A002000000000F6
:10DC000008B5074B07485968026E01F03D01D9601D
:10DC10000AB1406E9047BDE80840FFF719B900BF50
:10DC200000640240B80A002000000000000000006C
:10DC3000084B09485968826E890901F03D0110B509
:10DC40008C01DC600AB1C06E9047BDE81040FFF760
:10DC5000FFB800BF00640240B80A002000000000C6
:10DC6000084B09485968026F090C01F03D0110B5D5
:10DC70000C04DC600AB1406F9047BDE81040FFF72C
:10DC8000E7B800BF00640240B80A002000000000AE
:10DC9000084B09485968826F890D01F03D0110B5A4
:10DCA0008C05DC600AB1C06F9047BDE81040FFF7FB
:10DCB000CFB800BF00640240B80A00200000000096
:10DCC0000D4B30B400220D4D0D4C1A601146134619
:10DCD000A858016044F833100133102B02F10C02F4
:10DCE000F6D10849084A4FF0FF338B6030BCCB6057
:10DCF0009360D360704700BF380B0020900B010881
:10DD0000B80A0020006002400064024000000000E9
:10DD1000174B4FF0FF311A69002210B419611A61D4
:10DD2000586959615A61186A124C60F08050186243
:10DD30001A62586A59625A62196C41F0805119642A
:10DD4000216841F480712160196F01F44071B1F5CF
:10DD5000007F03D04FF4803119671A67054A5DF8D8
:10DD6000044B536823F400735360FFF7A9BF00BF4F
:10DD70000038024000700040000000000000000079
:10DD80002C492D4B4FF080504FF4404208641A60EC
:10DD90000B6843F001030B600A68264B9007FBD524
:10DDA0009A6822F003029A609A689A6019468B6812
:10DDB000204A13F00C03FAD1116801F0F901116047
:10DDC0009360136843F4803313601168194B89031F
:10DDD000FBD55A6F42F001025A675A6F15499007F6
:10DDE000FBD5164B4B600B68134A43F080730B60F6
:10DDF00053685904FCD50F490A680E4B9201FBD5B4
:10DE00000F4A1049996040F2057111609A6842F01A
:10DE100002029A601A469368064903F00C03082B25
:10DE2000F9D14B6C43F480434B644B6E43F4804315
:10DE30004B667047003802400070004008544007AD
:10DE4000003C024000940838000000000000000080
:10DE500008B572B6FEF794FA62B6BDE80840FEF760
:10DE6000F7BF00BF0000000000000000000000003D
:10DE7000054B44F29F1000210722586099600B2047
:10DE800008211A60FFF794BD10E000E000000000D8
:10DE900010B5084C2046FFF73BF80749074A084BE6
:10DEA000A162E262236312200621BDE81040FFF761
:10DEB0005FBD00BF3C0B002000200140200C01088A
:10DEC000162C02000000000000000000000000000E
:10DED000C16A0A68136823F01F031360136813F004
:10DEE0000103FBD130B40D7A4C68826A3D21A94010
:10DEF00001202160536030BC93609060704700BF88
:10DF0000164B1A6800211960930624D510B5144CDD
:10DF1000E36A1B685B68D3B12369C3B12046FFF78E
:10DF2000D7FF23699B684BB105222270204601214F
:10DF300098472378052B04BF022323700023236115
:10DF400072B608484FF0FF31FEF7BAFC62B6BDE882
:10DF50001040FEF77DBFFEF77BBF00BF00200140F1
:10DF60003C0B0020500B00200000000000000000CF
:10DF700008B50648064A436801215B6851610021E3
:10DF80009847BDE80840FEF763BF00BF700B002054
:10DF9000003C014000000000000000000000000004
:10DFA00008B50648064A43680221DB685161012131
:10DFB0009847BDE80840FEF74BBF00BF700B00203C
:10DFC000003C0140000000000000000000000000D4
:10DFD00008B50648064A436804215B69516102217D
:10DFE0009847BDE80840FEF733BF00BF700B002024
:10DFF000003C0140000000000000000000000000A4
:10E0000008B50648064A43680821DB6951610321C7
:10E010009847BDE80840FEF71BBF00BF700B00200B
:10E02000003C014000000000000000000000000073
:10E0300008B50648064A436810215B6A516104210D
:10E040009847BDE80840FEF703BF00BF700B0020F3
:10E05000003C014000000000000000000000000043
:10E06000184B10B55C6904F478725A61A30622D487
:10E0700060061AD4210612D4E2050AD4A30504D5F9
:10E08000114843680921DB6C9847BDE81040FEF752
:10E09000DFBE0D48436808215B6C9847EEE70A48ED
:10E0A00043680721DB6B9847E6E70748436806218A
:10E0B0005B6B9847DEE7044843680521DB6A9847B5
:10E0C000D6E700BF003C0140700B002000000000BC
:10E0D0001C4B10B55C6904F47C425A6162052AD479
:10E0E000230522D4E0041AD4A10412D462040AD471
:10E0F000230404D5144843680F21DB6F9847BDE81B
:10E100001040FEF7A5BE104843680E215B6F98478C
:10E11000EEE70D4843680D21DB6E9847E6E70A48B5
:10E1200043680C215B6E9847DEE7074843680B2184
:10E13000DB6D9847D6E7044843680A215B6D984732
:10E14000CEE700BF003C0140700B00200000000043
:10E1500008B50748074A43684FF48031D3F8843044
:10E16000516110219847BDE80840FEF771BE00BF1D
:10E17000700B0020003C0140000000000000000087
:10E1800008B50748074A43684FF40031D3F88C308C
:10E19000516111219847BDE80840FEF759BE00BF04
:10E1A000700B0020003C0140000000000000000057
:10E1B00008B50748074A43684FF48021D3F89430E4
:10E1C000516112219847BDE80840FEF741BE00BFEB
:10E1D000700B0020003C0140000000000000000027
:10E1E00008B50748074A43684FF40021D3F89C302C
:10E1F000516113219847BDE80840FEF729BE00BFD2
:10E20000700B0020003C01400000000000000000F6
:10E2100008B50748074A43684FF48011D3F8A43083
:10E22000516114219847BDE80840FEF711BE00BFB8
:10E23000700B0020003C01400000000000000000C6
:10E2400008B50748074A43684FF40011D3F8AC30CB
:10E25000516115219847BDE80840FEF7F9BD00BFA0
:10E26000700B0020003C0140000000000000000096
:10E2700008B50748074A43684FF48001D3F8B43023
:10E28000516116219847BDE80840FEF7E1BD00BF87
:10E29000700B0020003C0140000000000000000066
:10E2A000062008B50146FFF763FB07200621FFF7AC
:10E2B0005FFB08200621FFF75BFB09200621FFF723
:10E2C00057FB0A200621FFF753FB17200621FFF713
:10E2D0004FFB28200621FFF74BFB01200621FFF70B
:10E2E00047FB29200F21FFF743FB2A200621FFF7D8
:10E2F0003FFB3E200621FFF73BFB4C200621FFF7AA
:10E3000037FB02200F21FFF733FB03200F21BDE86D
:10E310000840FFF72DBB00BF000000000000000018
:10E320000148FEF73DBE00BF700B0020000000005A
:10E330000F29F0B420D9426852F83100C30734D510
:10E34000224D0123AC688B401C43AC60DC431F4D65
:10E3500002EBC10110F0020FE8684A6814BF1843CD
:10E360002040E8604AB3194A11680B4313605368B0
:10E3700023405360F0BC704721F00303426803F16F
:10E38000804303F59C3352F831009F6801F0030489
:10E39000A4000F26A640C0F3031527EA060605FAD7
:10E3A00004F434439C60C307CAD4084E0123B56803
:10E3B0008B40DC432540B560C9E7044A51680B43F4
:10E3C0005360136823401360F0BC7047003C014069
:10E3D000084B012218688A40D143084018605868E9
:10E3E00008405860986808409860D8680140D96033
:10E3F0005A617047003C014000000000000000002E
:10E4000038B50378012B054616D0002404E001340A
:10E41000FFF78EFF172C0ED06B6853F8343013F0D3
:10E42000040F28462146F2D1214628460134FFF741
:10E43000CFFF172CF0D138BDFFF732FFE5E700BF63
:10E44000F0B5434C434D236C43F000732364D5F87F
:10E4500000321B0C1B0443F0010343EA0023C5F800
:10E46000003200294ED00023C5F81C321846C5F8EA
:10E4700004321C46C5F80C32C5F81432C30003F14F
:10E48000804303F5C84301301C28C3F84042C3F859
:10E490004442F3D12F480026012715681479EB0078
:10E4A00003F1804314F0010F03F5C84306F10106A0
:10E4B00007FA05F505D0D0F804E245EA0E0EC0F8DB
:10E4C00004E214F0020F05D0D0F80CE245EA0E0E7B
:10E4D000C0F80CE2640704D5D0F814422C43C0F80D
:10E4E00014429468C3F84042D468C3F84442D0F858
:10E4F0001C328E4243EA050302F11002C0F81C32BE
:10E50000CBD118E0C20002F18042012302F5C842DB
:10E51000834043F00103C5F84012C5F84412C2F825
:10E520004012C2F84412C5F80412C5F81412C5F816
:10E530000C32C5F81C320749054AD1F8003223F0E5
:10E540000103C1F80032136C23F000731364F0BDB3
:10E55000003802400064004000000000000000009D
:10E5600010B50A4C0A4AE36A9A6072B6002104F1B7
:10E570000800FEF7CDF904F11C000121FEF7F0FAC6
:10E5800062B6BDE81040FEF763BC00BF780B002008
:10E590000101010000000000000000000000000078
:10E5A00038B5124DEB6ADC68A2070DD1E30607D53A
:10E5B000EB6A1021D96072B60D48FEF7D1FA62B647
:10E5C000BDE83840FEF744BC5A6922F002025A61A5
:10E5D00072B6002105F11000FEF79AF905F1180056
:10E5E0000121FEF7BDFA62B6E0E700BF780B00201C
:10E5F000980B002000000000000000000000000058
:10E6000038B5124DEB6A1C69A2070DD1E30607D598
:10E61000EB6A1021196172B60D48FEF7A1FA62B6D5
:10E62000BDE83840FEF714BC5A6922F010025A6166
:10E6300072B6002105F11000FEF76AF905F1180025
:10E640000221FEF78DFA62B6E0E700BF780B0020EA
:10E65000980B0020000000000000000000000000F7
:10E6600038B5174DEB6A5C681C225A60220719D432
:10E67000630713D5EA6A9369916921F0700191618A
:10E6800013F0700F03F0070118BF41F0080172B6D4
:10E690000C4841EA0341FEF763FA62B6BDE8384030
:10E6A000FEF7D6BB1A68284622F00202032100F8C2
:10E6B000281B1A6072B60021FEF752FA62B6D7E73D
:10E6C000780B0020980B00200000000000000000E4
:10E6D00010B5064C2046FEF733FC0021044BE362E4
:10E6E0000A460E20BDE81040FFF7AABE780B0020B6
:10E6F0000064004000000000000000000000000076
:10E700002DE9F04FDFF8B481DFF8B4C1D8F830A0BC
:10E71000DFF8B0E1634F644E644D654C6549664A6D
:10E72000DFF8A4B140F2FF194AEA090AC8F830A09C
:10E73000D8F850A04AEA0909C8F850904368CCF8C4
:10E7400004308368CCF80830C368CCF80C30036917
:10E75000CCF814304369CCF820308369CCF82430ED
:10E760000368CCF80030036ACEF80430436ACEF870
:10E770000830836ACEF80C30C36ACEF81430036BCD
:10E78000CEF82030436BCEF82430C369CEF8003089
:10E79000C36B7B60036CBB60436CFB60836C7B6111
:10E7A000C36C3B62036D7B62836B3B60876D7760FC
:10E7B000C76DB760076EF760476E7761876E376227
:10E7C000C76E7762476D3760466F6E60866FAE606A
:10E7D000C66FEE60D0F880606E61D0F884602E6203
:10E7E000D0F888606E62066F2E60D0F89050656039
:10E7F000D0F89450A560D0F89850E560D0F89C50BF
:10E800006561D0F8A0502562D0F8A4506562D0F8B8
:10E810008C502560D0F8AC404C60D0F8B0408C6093
:10E82000D0F8B440CC60D0F8B8404C61D0F8BC40CF
:10E830000C62D0F8C0404C62D0F8A8400C60D0F810
:10E84000C8105160D0F8CC109160D0F8D010D160D1
:10E85000D0F8D4105161D0F8D8101162D0F8DC1083
:10E860005162D0F8C4101160D0F8E420CBF8042035
:10E87000D0F8E820CBF80820D0F8EC20CBF80C201A
:10E88000D0F8F020CBF81420D0F8F420CBF82020DA
:10E89000D0F8F820CBF82420D0F8E020CBF80020E6
:10E8A000BDE8F08F00080240000C0240001002405A
:10E8B0000014024000180240001C024000380240D0
:10E8C000000002400004024000200240000000005E
:10E8D0002DE9F04F4FF00F0C02F0030EC2F380074A
:10E8E000C2F3C106C2F341150024C2F3C3124FF0B4
:10E8F00001094FF003082BE0D0F820B02BEA030306
:10E9000043EA0A030362436809FA04FA23EA0A03A2
:10E910003B4343604FEA440A836808FA0AFA6FEA05
:10E920000A0A0AEA030333438360C3680AEA03035B
:10E930002B43C36003680AEA030343EA0E03036040
:10E94000490819D07F00B600AD004FEA8E0E0134A1
:10E9500004F007039B0011F0010F02FA03FA0CFA0E
:10E9600003F3EDD0072CC7D9D0F824B02BEA03036A
:10E9700043EA0A034362C6E7BDE8F08F00000000E7
:10E9800038B5446B384AA369656945EA034323F007
:10E990007F4393424BD01BD8073A93423BD001327E
:10E9A000934210D16268C36A22F400721B686260ED
:10E9B0001A6842F001021A60626842F48052626092
:10E9C0005B68012B4AD915F00A0F18BFA36938BD3F
:10E9D000264A934210D002329342F4D1C36A1B6894
:10E9E000596800292CD0028C236842F0010243F4BC
:10E9F000A0630284236038BD6368026B23F4007354
:10EA000012686360136843F00103136015F00A0F86
:10EA100018BFA36938BD038C1A0A0BD003F0010399
:10EA200043F0F00302F0060213432361CBE7038CAB
:10EA3000C3F34703236115F00A0F18BFA36938BD5C
:10EA4000636823F400736360236843F400732360F6
:10EA500072B61C30FDF734FF62B6B4E7236823F4C6
:10EA600080632360AFE700BF080003008200070057
:10EA700070B5056B2A68136823F01F0313601368D1
:10EA8000DE07FCD42E7AC46A6D6822683D23B34049
:10EA90002B60136823F01F031360136813F0010346
:10EAA000FBD1257A64683D22AA40CD05226048BF8B
:10EAB00001238C05836044BF43F0020383604A0551
:10EAC0000BD5426B546824F400745460146843F00E
:10EAD000040344F40074146083600E0544BF43F0E3
:10EAE000080383604D0444BF43F020038360CC04DB
:10EAF0000CD543F01003090483600CD472B66FF098
:10EB000001011C30FDF7DCFE62B670BD0A0402D4C0
:10EB1000002BF3D170BD43F040038360EEE700BFEC
:10EB200008B50348FFF72CFFBDE80840FEF790B991
:10EB3000A80B002000000000000000000000000002
:10EB40000748426B516908B589B201F45F43DB4362
:10EB50005361FFF78DFFBDE80840FEF779B900BFAC
:10EB6000A80B0020000000000000000000000000D2
:10EB700008B50348FFF704FFBDE80840FEF768B991
:10EB8000E00B00200000000000000000000000007A
:10EB90000748426B516908B589B201F45F43DB4312
:10EBA0005361FFF765FFBDE80840FEF751B900BFAC
:10EBB000E00B00200000000000000000000000004A
:10EBC000F8B50D4E0D4D0E4C3046FEF719FA0D4BB3
:10EBD0007363002704F148032846F4623363F76146
:10EBE000FEF70EFA04F11803074AEF6154346A6322
:10EBF000EB622C63F8BD00BFA80B0020E00B0020E7
:10EC0000900B010800540040005800400000000034
:10EC10002DE9F04FA74BA84A9B69D0F850A09A6104
:10EC200085B072B600F16003D346039382469AF82A
:10EC30000030012B06D0DAF85C3063B9DBF8143011
:10EC4000DA0608D4DBF81830039843F01003CBF849
:10EC50001830FDF725FE62B64FF00008DBF81430DF
:10EC6000DB0623D5DAF85020136A03F4F011B1F56E
:10EC7000802F2ED0B1F5402FF0D103F00F010AEB19
:10EC80008101C3F30A13C96803339B080C6AE5D0FA
:10EC900002F580520221106811B144F8040B0139C9
:10ECA000013BF8D1DBF81430DB06DBD40122DAF8C3
:10ECB0005C3002FA08F21A42019262D108F10108AE
:10ECC000DAF854309B685FFA88F89845C6D972B66E
:10ECD000ADE703F00F050AEB8505C3F30A14EB68F3
:10ECE00098690378DBB943688168C6680333591AA9
:10ECF000E31C9B084FEA910109D002F58052B64609
:10ED0000176811B14EF8047B0139013BF8D1264454
:10ED1000C660EB689A699368234493609EE7C06875
:10ED200024B302F580522646032E416907D90369B0
:10ED3000994204D3C3684361032E4169F7D8D2F8DE
:10ED400000E0002701F1010C2EFA07F3C0F814C00F
:10ED50000B7003694169994224BFC3684361013E56
:10ED600004D0182FE0D008374169EBE772B683680A
:10ED7000234483600021FDF7CBFDFDF7A1FC62B6C3
:10ED8000C7E772B6DBF80820DAF85C30019922F0A8
:10ED9000010223EA0103CBF80820CAF85C3062B60E
:10EDA0000AEB8809D9F80C0041698A684B689A42D5
:10EDB00080F0A980DAF85060078A4FEA48100446CC
:10EDC00030189B1AD0F818299F4228BF1F4693B2CB
:10EDD000B7EB830F08F101082ED8CDF808B0A34691
:10EDE0000B78002B39D1FB1CCC689B0806EB08364E
:10EDF00018BF224604D052F8040B3060013BFAD110
:10EE00003C44CC60D9F80C0041698B684A683B44AB
:10EE10009A428B6073D9DAF85060008A06EB0B04D3
:10EE2000D71AD4F81839874228BF07469BB2B7EBE8
:10EE3000830FD5D9DDF808B0002272B6DBF80830B0
:10EE400043F00103CBF808302AB9DBF83438019AD3
:10EE50001A43CBF8342862B632E706EB0836C868A6
:10EE6000E7B1D0F810E03A46930827D18369002132
:10EE70000C465D1C85611B78754503FA01F344EA75
:10EE8000030424BFC3688361013A04D0182902D067
:10EE900008318369EDE73460002AE5D172B68368F2
:10EEA0003B4483600021FDF733FDFDF709FC62B6AA
:10EEB000A8E700BF38080020600C01088469BEEB99
:10EEC000040148BF033189108B4228BF0B464FEA2B
:10EED000830CCCEB020233B1214651F8045B356060
:10EEE000013BFAD16444A645846104D8C3688361B8
:10EEF000002AB9D1D2E7002AD0D02346B7E7DDF8FF
:10EF000008B0012299E708F10108FAE700000000C3
:10EF1000F0B50024D1F808E025464FF0804C4FF0C2
:10EF2000FF3714E0C1F80059C218C2F81059C2F8EE
:10EF30000879D1F8006B002E17DBC1F8005B0344A1
:10EF40000134A645C3F8105BC3F8087B14D36301F2
:10EF5000C118D1F80029002AE4DAC1F800C90E4628
:10EF6000D6F808299207FBD5DEE7C1F800CBD2F826
:10EF7000081BC906FBD5E2E74FF00113C0F81C38A7
:10EF8000F0BD00BF00000000000000000000000015
:10EF900010B5064C2046FEF703FA4FF0A043044A92
:10EFA0002365002362652366636610BD180C00208C
:10EFB000500C0108000000000000000000000000EC
:10EFC00070B50378066D012B82B001D002B070BD20
:10EFD000304B9842054618BF34463AD000232E489D
:10EFE0002E49EB654FF43412F060C6F8001820206B
:10EFF000C6F8003EB263FDF7EBF9012323612369F4
:10F00000DB07FCD40C20FDF7E3F92369002BFCDAC5
:10F010000024B460286D696DFFF77AFF6B68C6F84D
:10F020001048DB68C6F81448C6F81C486BB143F2B8
:10F030000803B3616B6E4FF0FF327261D3B1B368F6
:10F0400043F00103B36002B070BD4FF44053B361AD
:10F05000F0E7134B5A6B42F080025A635A69002161
:10F0600042F080025A61432059610E21FEF780FC74
:10F070002C6DB3E74FF4067102220A4B009505F19F
:10F080006800FDF765FB6866FDF73AFAFDF718FBC7
:10F09000D5E700BF180C00204014004003002002F8
:10F0A0000038024011EC00080000000000000000E1
:10F0B000F8B5056D202307462B612B6913F020045A
:10F0C000FBD10C20FDF784F9D7F854E0DEF8086096
:10F0D00023464FF00060FF2105EB43120133B3429A
:10F0E000C2F80009C2F8000BC2F80819C2F8081BE0
:10F0F000F2D9DEF800304FF0FF324FF00111C5F8C1
:10F1000018283A6DC5F81C18BB65DEF800306B6234
:10F1100010231361136913F01004FBD10C20FDF7C9
:10F1200057F9D5F80038114A114823F4FE63C5F8A1
:10F130000038AB6943F4402343F010030921AB616D
:10F14000C5F81018C5F81418F860C5F8104BC5F8C4
:10F15000002BC5F81049C5F80029BB6D03F110025A
:10F1600043F48013BA65AB62F8BD00BF4080001065
:10F17000700C01080000000000000000000000000A
:10F18000026D90F84E10D2F8003823F4FE6343EA83
:10F190000113C2F8003870470000000000000000B2
:10F1A0002DE9F0410FFA81F800EB88070D46FB6866
:10F1B000046D1A6802F00302022A5CD0032A5CD0B4
:10F1C0004A4E4B49012A18BF0E466A01D96804EB22
:10F1D000020E4FF0000CCEF810CB002971D0B3F81E
:10F1E00012E005F15801490146EA0E0E44F801E02B
:10F1F00005F1100CD4F81C184FF0010E0EFA0CFE9D
:10F200004EEA0101C4F81C18224499684FF0000E20
:10F21000C2F810E999B3998B1A8A01294FEA92032F
:10F2200088BF4B4305F13F0E816D04EB8E0EAA01A2
:10F2300003EB010C42F0200241EA0343C0F858C03E
:10F24000CEF80430226123699A06FCD40C20FDF725
:10F25000BFF8FB681A8A05F148035B0142EA855250
:10F260003243E2500123D4F81C28AB401343C4F8C6
:10F270001C38BDE8F0811F4EA7E71F4EA5E705F13A
:10F280003F0204EB8202AB011C49516043F02003B2
:10F29000236123699B06FCD404EB48180C20FDF77E
:10F2A00097F8D8F8002922F40042C8F80029D4F8C9
:10F2B0001C280123AB4022EA0303C4F81C38BDE834
:10F2C000F08104EB481105F1100CD1F800EB2EF49D
:10F2D000004EC1F800EBD4F81C184FF0010E0EFAE6
:10F2E0000CFE21EA0E01C4F81C188DE70080041002
:10F2F000008000100080081000800C100004000244
:10F300005831036D49015B5813F4004004D013F4E5
:10F31000001F14BF01200220704700BF0000000042
:10F320004831036D49015B5813F4004004D013F4D5
:10F33000001F14BF01200220704700BF0000000022
:10F3400000EB8101CB681B6A19685B685360116030
:10F35000704700BF00000000000000000000000037
:10F3600000EB810330B4DD68AC696368236131B9B7
:10F37000402B04D940236360094A3F2402E05C1E0D
:10F3800043F0C042006D6D8A00EB41116319B3FB7D
:10F39000F5F342EAC343C1F8103B30BC704700BFED
:10F3A00040000060000000000000000000000000BD
:10F3B0002DE9F041244E376D07EB40130546D3F895
:10F3C000084BC3F8084B200703D5D7F814381907A2
:10F3D0001DD4E20719D5D7F81438DB0715D506EB8D
:10F3E0008506194CF1688B6958681A69904216D3E2
:10F3F0006289CE680123AB4022EA03036381294678
:10F4000020463346BDE8F0411847BDE8F08106EBE1
:10F4100085033046DB6829465B689847D9E7121AAE
:10F42000002199605A6020462946FFF799FF72B67D
:10F43000236D03EB4515D5F8003B43F08063C5F819
:10F44000003B62B6BDE8F081180C0020000000000F
:10F4500000EB810310B4DC68626953681361ABB1DF
:10F4600071B15A1E006D248A00EB41112244B2FB97
:10F47000F4F243EAC243C1F810395DF8044B704717
:10F48000402BEED9402353603F22EBE7036D5DF83C
:10F49000044B03EB41114FF40023C1F810397047BE
:10F4A000F8B52B4F3D6D05EB40130646D3F80849E0
:10F4B000C3F80849E10703D5D5F81038DA0708D4AE
:10F4C000230605D50123D5F83428B340134223D1B0
:10F4D000F8BD07EB8003D9684B6958681A699042F8
:10F4E0002AD2121A002199605A6038463146FFF735
:10F4F000AFFF72B63B6D03EB46100122D0F8001946
:10F5000041F00441C0F80019D3F83418B2400A435E
:10F51000C3F8342862B6D3E772B6D5F83418FA6D5A
:10F520000C4821EA0301C5F8341813430021FB6598
:10F53000FDF7C6F962B6F8BD3A89D1F808C00123D3
:10F54000B34022EA03033B8138463146E047B7E740
:10F55000180C0020780C00200000000000000000C3
:10F5600070B5384E356D6B69AC691C40E1046C6157
:10F570002DD4A20448BFD5F80838230704D57368F2
:10F58000DB680BB12F489847E6062BD46003D5F80B
:10F59000185807D5E90741D4AA0744D46B0747D4C4
:10F5A0002E074AD4240307D5E8032CD4A9032FD46B
:10F5B0006A0322D42B0303D4BDE87040FDF748BC96
:10F5C0000320FFF7F5FEBDE87040FDF741BC304673
:10F5D000FDF776FF73681B68002BCAD03046002108
:10F5E0009847C6E772B6AB69174823F01003AB61C2
:10F5F0000021FDF765F962B6C8E70220FFF7D8FEE3
:10F600002B03D9D5DCE70020FFF7D2FEA903CFD525
:10F610000120FFF7CDFE6A03CCD5EEE70020FFF70F
:10F620003FFFAA07BAD50120FFF73AFF6B07B7D50E
:10F630000220FFF735FF2E07B4D50320FFF730FF78
:10F64000B0E700BF180C0020780C0020000000007C
:10F65000036D03EB4111D1F8003B43F08063C1F827
:10F66000003B7047000000000000000000000000A8
:10F67000036D10B403EB41140122D4F8000940F0EB
:10F680000440C4F80009D3F834085DF8044B8A40FC
:10F690000243C3F834287047000000000000000057
:10F6A000036D03EB4111D1F8003B43F40013C1F8A3
:10F6B000003B704700000000000000000000000058
:10F6C000036D03EB4111D1F8003943F40013C1F885
:10F6D000003970470000000000000000000000003A
:10F6E000036D03EB4111D1F8003B23F40013C1F883
:10F6F000003B704700000000000000000000000018
:10F70000036D03EB4111D1F8003923F40013C1F864
:10F7100000397047000000000000000000000000F9
:10F7200010B50A4C0A4B4FF6FF7220461A80FDF7BF
:10F7300027FE084B08480949094AE06103F10C001B
:10F7400023626062A162E26210BD00BFB80E0020B9
:10F75000B40E0020B40B0108003800401600010070
:10F760004600010000000000000000000000000052
:10F7700038B5174DAB691A69DC681440E2B2D24360
:10F780001A61A30704D56B681B690BB1284698471B
:10F79000600704D56B689B690BB10D48984721073A
:10F7A00004D56B681B6A0BB109489847E20604D57B
:10F7B0006B689B6A0BB106489847E30704D56B68F2
:10F7C0009B680BB102489847BDE83840FDF740BB45
:10F7D000E80E002000000000000000000000000013
:10F7E00010B5044C2046FDF71BFC0422024B22748A
:10F7F000A36110BDE80E00200004004000000000DE
:10F80000FEF7BEBA0000000000000000000000008B
:10F81000704700BF00000000000000000000000072
:10F8200038B5244D2448254C80210022FFF750F89C
:10F83000284610210022FFF74BF8284620210022FD
:10F84000FFF746F8204601210022FFF741F8204645
:10F8500002210022FFF73CF820464FF4806100228D
:10F86000FFF736F84FF48051218320461922FFF725
:10F870002FF820464FF400410022FFF729F82046D8
:10F880004FF400510122FFF723F820464FF4804146
:10F890000122FFF71DF84FF400524FF0006362831E
:10F8A000A36120464FF400611922BDE83840FFF7FC
:10F8B0000FB800BF000802400000024000040240F0
:10F8C00000B585B00DF107018DF8070001220DF19B
:10F8D0000F0000F05DFA9DF80F0005B05DF804FB25
:10F8E00010B5044600F094FA2046FFF7E9FF0446FD
:10F8F00000F096FA204610BD000000000000000055
:10F9000010B5044600F084FA200A40F01000FFF71A
:10F91000D7FFE0B2FFF7D4FF0020FFF7D1FF044686
:10F9200000F07EFA204610BD00000000000000003C
:10F9300070B504460E4600F06BFA200A40F0200035
:10F94000FFF7BEFF0546E0B2FFF7BAFF3046FFF70C
:10F95000B7FF00F065FA284670BD00BF0000000048
:10F9600070B505460C4600F053FA280A40F0200016
:10F97000FFF7A6FF0646E8B2FFF7A2FFE0B2FFF7E7
:10F980009FFF200AFFF79CFF00F04AFA304670BD47
:10F9900070B50E46054600F03BFA3020FFF790FFA9
:10F9A0002A4604460021304600F0F2F900F038FA09
:10F9B000204670BD000000000000000000000000B4
:10F9C00010B500F025FA3020FFF77AFF0020FFF78E
:10F9D00077FF044600F024FA204610BD0000000026
:10F9E00070B505460E4600F013FA3A20FFF768FF9F
:10F9F000314604462A46002000F0CAF900F010FA09
:10FA0000204670BD00000000000000000000000063
:10FA100038B5054600F0FCF95820FFF751FF0446C1
:10FA20002846FFF74DFF00F0FBF9204638BD00BF28
:10FA300010B5044600F0ECF944F08000FFF740FFF9
:10FA40000020FFF73DFF044600F0EAF9204610BD14
:10FA500038B505460C4600F0DBF945F0C000FFF76D
:10FA60002FFF2046FFF72CFFBDE8384000F0D8B943
:10FA700008B5074B074A9B690749084C9961136011
:10FA80000120FDF78DF82368002BF9D09847F7E7A0
:10FA900038080020A0140020A00D0108A4140020A4
:10FAA000014B1878704700BF3608002000000000A6
:10FAB00000EB8000A0F12C01C9B22E20FFF7C8BFD7
:10FAC00001464FF47D70FFF74BBF00BF0000000000
:10FAD000014640F2F230FFF743BF00BF00000000D4
:10FAE000034608461946FFF77BBF00BF0000000031
:10FAF000034608461946FFF74BBF00BF0000000051
:10FB000038B51A4A13699906FCD522200221FFF75D
:10FB10009FFF164820210022054640F2F314FEF70D
:10FB2000D7FE04E0013CA4B2FCF78AFEC4B1442035
:10FB3000FFF7D6FE2B69DA064FF00100F2D57CB153
:10FB40000A4A13699B06FCD5002422202C21FFF7CA
:10FB50007FFF064820210022FEF7BAFE204638BD6E
:10FB60004820FFF7BDFE0124EFE700BF0008024078
:10FB7000024B18608820FFF74BBF00BFA414002081
:10FB800008B58820FFF744FF02480921BDE8084076
:10FB9000FDF726BA700B00200000000000000000F6
:10FBA00070B5294D294C82B0102119222846FEF744
:10FBB0008FFE1023AB61FFF7E3FF4FF00063A361FB
:10FBC00000F02EF91420FCF73BFE204600224FF4F3
:10FBD0000041FEF77DFE4FF400624FF08053A261BA
:10FBE0002646A361322405E0FCF72AFE631E13F0CB
:10FBF000FF0423D03369154D1B044FF00100F3D5EA
:10FC00004FF48053124CAB61207830B16178FFF72C
:10FC10008FFE14F8020F0028F8D1002300934FF450
:10FC2000B3610C4B0C484222FCF7CAFD4620FFF79B
:10FC300067FE853818BF012002B070BD4FF48053B5
:10FC40000120AB6102B070BD000002400004024020
:10FC50000808002071FA0008080F002000000000CA
:10FC600010B5FFF78DFF4720FFF73AFE3E20FFF764
:10FC7000DFFE04464220FFF733FE3E20FFF7D8FEAA
:10FC8000A04202D04720FFF72BFE03480721BDE822
:10FC90001040FDF79DB900BF700B00200000000070
:10FCA00010B5FFF76DFF4720FFF71AFE3E20FFF764
:10FCB000BFFE04464520FFF713FE3E20FFF7B8FEC7
:10FCC000A04202D04720FFF70BFE03480721BDE802
:10FCD0001040FDF77DB900BF700B00200000000050
:10FCE00008B5FFF74DFFFFF76BFE4720FFF7F8FD64
:10FCF0004720FFF7F5FD03480721BDE80840FDF761
:10FD000067B900BF700B0020000000000000000079
:10FD100008B572B6034B01211868FCF709FF62B6FB
:10FD200008BD00BFA014002000000000000000007B
:10FD300010B572B60E4C22202A21FFF789FE002250
:10FD400020462021FEF7C4FD23699A0605D501202F
:10FD5000FCF776FD23699B06F9D422202C21FFF7BE
:10FD600077FE034820210022FEF7B2FD62B610BDE7
:10FD70000008024000000000000000000000000039
:10FD8000884228BF084670470000000000000000BD
:10FD90002DE9F0411B4D4FF400536B8300BF002A47
:10FDA0002CDD4FF0000859B311F808400827002354
:10FDB0004FF4005CC4F3C71EBEF1000F0CBF4FF040
:10FDC0008046002646EA8E366400E4B2AE6100BF8B
:10FDD0002E69A5F818C05B00DBB216F4004F18BFFF
:10FDE00043F0010300BF013FA5F81AC0E2D108B1FA
:10FDF00000F8083008F101089045D4D1BDE8F08141
:10FE00000C46D3E7000402400000000000000000A0
:10FE1000024B4FF480525A8300BF704700040240E7
:10FE200000BF024B4FF480521A8370470004024017
:10FE300008B50C4B0C4A9B690C4C9A6102E00A20F5
:10FE4000FCF7FEFC2369DB07F9D50948FCF738FE0F
:10FE5000FFF746FF8620FFF7DBFD0548FCF738FE7D
:10FE6000EDE700BF38080020E00D01080004024063
:10FE7000E817002000000000000000000000000063
:10FE800038B52848284CFCF71BFE8820FFF7C0FD3A
:10FE900001212046FFF72CFE217801F07F01052982
:10FEA000217021D0214DA1F10B03DBB2601CAB719D
:10FEB000FFF71EFE61782289C1F3401004F10A03A6
:10FEC00028736A80AB60AA68AB795BB2D018D35C48
:10FED0006B7390F90130002BE37819DB2B7011481C
:10FEE000BDE83840FCF7F4BD601CFFF701FE637805
:10FEF00094F905200D49C3F34013002A0B73EEDA81
:10FF00000B4BE1781A789142E9D101225A70E6E769
:10FF10002A789A42E2D001F0DF01412904BF012290
:10FF2000AA73DBE7E8170020B8140020A81400200B
:10FF3000E0170020000000000000000000000000AA
:10FF400070B582B00646FFF72BFE012827D0154872
:10FF5000154DFCF745FD1548FCF742FD1449154BBE
:10FF60002E60012200248C609A705C603079FFF76B
:10FF70009FFD2B68188880B2FFF7A2FD2B68588878
:10FF800080B2FFF7A5FD0C48FFF7F2FD00940B4887
:10FF90000B4B4FF426714022FCF712FC204602B0B6
:10FFA00070BD00BFE8170020F8170020D017002010
:10FFB000A8140020E017002081FE0008381500205A
:10FFC00031FE0008000000000000000000000000FA
:10FFD000014B987B704700BFA81400200000000070
:10FFE0002DE9F041114D80460E4611481746FCF7A9
:10FFF00067FDAC68A8793146FFF7C2FE214602468C
:020000040801F1
:100000004046FCF7A5F837B16C7BFFF749FDE4B239
:10001000201A40B2388000230548AB73FCF758FD26
:10002000A8793146BDE8F041FFF7AABEA814002028
:10003000E8170020000000000000000000000000A1
:1000400010B5074C2046FCF73BFD064B01229A7089
:10005000FFF706FE2046BDE81040FCF739BD00BFA3
:10006000E8170020E017002000000000000000005A
:1000700010B5074C2046FCF723FD064B00229A7072
:10008000FFF70EFE2046BDE81040FCF721BD00BF83
:10009000E8170020E017002000000000000000002A
:1000A0002DE9F041364D804636480C461746FCF7A0
:1000B00007FDAB78002B5FD038466721324EFFF743
:1000C0005FFE3268314B074650792978D970882114
:1000D000002899705188998014BF4FF0610E4FF03D
:1000E000410E07F10B0083F801E01870A3F80680B9
:1000F00012881A815FB1781EC0B20A301844621E9D
:10010000093312F8011F03F8011F8342F9D1204877
:10011000FCF7D6FCFFF70CFE07F10A01C9B21B4839
:10012000FFF7DEFCFFF7ECFC074698B11848FCF738
:10013000CFFC33685B790124AB780BB9FFF798FFEC
:100140002B7810480133DBB22B70FCF7C1FC204642
:10015000BDE8F0810E48FCF7BBFC33685B7903F027
:10016000FF04002BE8D006206F70FCF769FB6C7869
:10017000B4FA84F46409DFE7FFF762FF9CE700BF8D
:10018000E0170020D0170020F8170020FC170020EF
:10019000E817002000000000000000000000000040
:1001A00008B5FCF785FEFCF79BF800F031FA00F08B
:1001B0005FFA00F025F900F003FB1420FCF740FB88
:1001C00000F09EFBF9E700BF000000000000000007
:1001D000022906D0032906D00129064818BF0020AD
:1001E000704705487047032A9ABF044B03EBC200CF
:1001F00000207047A00F0108200E0108700F0108B1
:10020000022911D138B505460C4672B60121074ABC
:10021000FDF7E6F828462146054AFDF7E1F80548CE
:10022000FCF7F6FF62B638BD704700BFF00D01085D
:10023000300E0108841800200000000000000000BB
:1002400038B50E4D0E4C2846FCF7A2FF0D49284646
:10025000FCF7C6FF226D936B23F40023936343F6F0
:100260009820FCF7EDFA20460749FDF7A9F8226D22
:10027000936B43F40023936338BD00BF84180020C0
:10028000180C0020900F0108600E0108000000000B
:10029000144B154A9B69154C1549164D164EDFF83F
:1002A0005C8080B59961136027460120FCF778FCDB
:1002B0002368D8F8002003EB83119A4205EB410133
:1002C0004FF6FF70F1D0F25CFFF7EAFE012000F07C
:1002D000B7F923680133092B2360EADD00233B6073
:1002E000E6E700BF380800209C240020682E00208C
:1002F000B00F0108881B0020A4240020A0240020A7
:100300002DE9F8432B4B2C4D9B692C4A2C4F9A61BD
:10031000A84602E00120FCF793FAFFF759FE0028F7
:10032000F8D0254882210022FFF75AFE2C78064695
:10033000002000F085F9032CECD8DFE804F0332628
:100340000702711E1F4800F06BFAE3E76C78AB7888
:1003500043EA0424B4F5806FDCD8601D801B721F53
:10036000194998F8039098F804603844FBF7F0FEB8
:100370001348214600F084F946EA0926B042C9D163
:1003800021460F4800F04CFAC4E76878AB7843EA9E
:100390000020B0F5806FBDDA3844F21E0B49FBF740
:1003A000D7FEB7E768780A49B21E3844FBF7D0FE9B
:1003B000B0E700BF38080020041B0020BC0F010874
:1003C0009C200020051B0020091B0020071B00208B
:1003D000061B0020000000000000000000000000DC
:1003E00008B572B6034B01211868FCF7A1FB62B691
:1003F00008BD00BF9C240020000000000000000099
:1004000030B5154A154B002483B014601C60FFF70B
:1004100007FA134B0C2101224FF6112518465C7187
:100420005D8019711A80FFF78BFD012800D1FEE76E
:10043000FFF706FE00940B4B0B4840F69811402244
:10044000FCF7BEF90094094B09484FF4667140224D
:10045000FCF7B6F903B030BD682E0020A0240020C0
:10046000602E002001030108C82400209102010829
:10047000702E0020000000000000000000000000BE
:1004800070B50F4D0F4B2C680E4604EB84120146DD
:1004900003EB42003246FBF75BFE631C0A4A092B62
:1004A000C8BF002316552B6072B60848C3680BB14D
:1004B00062B670BD3221064AFBF7AAFF62B670BD74
:1004C000A0240020881B0020A4240020B0240020A9
:1004D000E10301080000000000000000000000002F
:1004E0002DE9F04F6D299DB08946824670D9A1F162
:1004F0006907FDB2AE1C0024F6B2A34680466C34F8
:10050000A4F16C03A7428DF800B08DF801300DF115
:10051000020041464FF06C026DD3FBF719FE6E21CD
:100520006846FFF7ADFF6C3EA742F6B208F16C08D3
:100530002DD9B4F5A27FE2D1413DEDB20AF5A27604
:100540004FF001080BE0FBF703FE6E216846FFF752
:1005500097FF6B3DA74206F16B06EDB217D9230A50
:100560008DF802406B34A7428DF800808DF8013081
:100570000DF1030031464FF06B02E4D2EA1E314622
:10058000D2B20DF10300FBF7E3FD2946DEE74FEAA7
:1005900019230222494650468DF800208DF801307B
:1005A0008DF8029000F06CF80AEB07010346040A8C
:1005B00069220DF105008DF804308DF80340FBF73A
:1005C000C7FD68466E21FFF75BFF1DB0BDE8F08FE9
:1005D0001CAC032304F8703D01464A460DF10100AE
:1005E000FBF7B6FD09F101012046C9B2FFF748FF4C
:1005F0001DB0BDE8F08FB21E4146D2B20DF102002F
:10060000FBF7A6FD31468BE700000000000000006C
:1006100010B5094C022120461922FEF759F919227A
:1006200020460421FEF754F94FF480224FF40033A2
:10063000A261A36110BD00BF0000024000000000E5
:1006400040B1012805D1064A536983F00203536182
:1006500070477047024A536983F00403536170473F
:100660000000024000000000000000000000000048
:1006700001480249FCF79CBC700B0020D00F010818
:1006800091B170B4094E4518002310F8012BC3F343
:100690000F246240A84236F8121081EA03239BB26D
:1006A000F3D1184670BC7047084670479010010897
:1006B000054B10B41C6824680A46014618462346B8
:1006C0005DF8044B184700BF8418002000000000AC
:1006D000114B124A9B69124C1249134E80B5134FAD
:1006E00099611360A1460120FCF75AFA4FF0000807
:1006F000236832689A4203F101054FF00001F2D0FD
:10070000F85C256000F00CF92368B3F5006FF0D1B8
:10071000C9F80080ECE700BF38080020544F0020E3
:10072000504F00209012010808320020B8430020EA
:100730002DE9F043154B164A9B69164F164EDFF80C
:100740005C90DFF85C809A61A1B03B6811485B68FF
:100750006946012298470028F7DD33680DF1FF3420
:100760000022591CB1F5006F02F1010214F8015F7B
:1007700009F8035014BF0B4600238242F1DBD8F87E
:10078000000033600121FCF703FADEE7380800209F
:10079000A41201088418002008320020B843002069
:1007A000544F002000000000000000000000000086
:1007B000FFF796BE000000000000000000000000EF
:1007C00010B582B0FFF73CFD0D490E48002200F045
:1007D0003FF800240C48FCF703F900940B4B0C483D
:1007E0004FF466714022FBF7EBFF0094094B0A4877
:1007F00041F298114022FBF7E3FF02B010BD00BFA9
:10080000B1070108B10601080C32002031070108C8
:10081000B84B0020D1060108203200200000000063
:1008200070B5084C06460D462046FCF749F930469F
:100830002946002200F01CF82046BDE87040FCF775
:1008400047B900BF0C32002000000000000000008B
:10085000034B02EB821203EB42125060916070472F
:10086000584F0020000000000000000000000000C1
:10087000B1F5806F2DE9F0470C4631D89501DFF8CE
:100880007080AB18B1F5807F814608EB431329D9FE
:10089000080A032683F8121483F8110483F81064FD
:1008A0002A44550105F58267474422464946B8194E
:1008B000FBF74EFC21464846FFF7E2FE4544344430
:1008C0002B196A6883F811040325000A83F81004C1
:1008D000611983F812541AB13846BDE8F047104741
:1008E000BDE8F087022683F8111483F81064D7E777
:1008F000584F002000000000000000000000000031
:10090000054B5A7802F0FF010AB9197070475A78FE
:10091000013AD2B25A707047584F002000000000D0
:100920002DE9F8438E0173185B014E4DEB5C0C46CC
:10093000062B21D8DFE803F0263A475A78850400D1
:10094000032819D173185B0105EB03081033EF1866
:10095000D8F80C103846FFF793FE98F81D1898F851
:100960001C3843EA0123984206D1D8F808301BB15D
:100970003846D8F80C1098473444640100232B55AE
:10098000BDE8F883344402284FEA441464D00328B5
:10099000F4D12B5D01332A19DBB202202B55002143
:1009A0005070D160C2F81818BDE8F883344464016F
:1009B0002A192B5D0133DBB202212B550002517045
:1009C000D060BDE8F8833444640125442549EB68D0
:1009D0001843431EB3F5806FE86039D20B5D0133D5
:1009E000DBB202220B556A70BDE8F8837118490129
:1009F0006A18DFF870C0D2F81838D76802EB030E17
:100A00000133BB428EF81000C2F8183805D11CF82B
:100A100001300133DBB20CF80130344405EB4414EF
:100A200002236370BDE8F883344464012A192B5D06
:100A300082F81D080133DBB202212B555170BDE84D
:100A4000F883344464012A192B5D82F81C08F1E70D
:100A500000230B55BDE8F8832B5D02332A19DBB266
:100A60009CE700BF584F002000000000000000007D
:100A700070B4840746D0541E002A41D0CDB203463C
:100A800002E0621EE4B3144603F8015B9A07F8D152
:100A9000032C2ED9CDB245EA05250F2C45EA054594
:100AA00019D903F110022646103E0F2E42F8105CB1
:100AB00042F80C5C42F8085C42F8045C02F1100257
:100AC000F2D8A4F1100222F00F0204F00F04103249
:100AD000032C13440DD91E462246043A032A46F835
:100AE000045BFAD8221F22F003020432134404F0FC
:100AF00003042CB1C9B21C4403F8011BA342FBD16F
:100B000070BC704714460346C2E700BF00000000F7
:100B100069646C6500000000000000000000000037
:100B20006D61696E00160118040448080C10141851
:100B3000001C1D1E1F20000000000000000000001F
:100B400031D1000811D1000871D1000851D100083D
:100B500061D1000841D1000821D1000801D100086D
:100B60000000000000000000000000000000000085
:100B70000000000000000000000000000000000075
:100B80000100000000000000000000000000000064
:100B9000106002400860024000000B002860024024
:100BA0000860024006010C004060024008600240FC
:100BB00010020D00586002400860024016030E004B
:100BC000706002400C60024000040F008860024028
:100BD0000C60024006051000A06002400C6002405C
:100BE00010061100B86002400C60024016072F008A
:100BF0001064024008640240000838002864024083
:100C0000086402400609390040640240086402405A
:100C1000100A3A005864024008640240160B3B0078
:100C2000706402400C640240000C3C008864024086
:100C30000C640240060D4400A06402400C640240B3
:100C4000100E4500B86402400C640240160F4600C6
:100C500080000000400100000300000000000000D0
:100C60007573625F6C6C645F70756D70000000007E
:100C700000000000F1D4000821D80008E1D80008E5
:100C800040004000980E0020980E00200100000057
:100C9000AC0E00200000000000000000000000007A
:100CA00000AAA02A00000000FFABFFFF5400014093
:100CB000FFFF00000000565500AA0A00802008002F
:100CC00040020000FFFFFFFF15455155FFFF0000E8
:100CD000000000044000000001802002000000002D
:100CE000FFFFFFFF54154554FFFF000000000060A8
:100CF000000606000001005500000000FFFFFFFF96
:100D000055505500FF0F00000000000000000000DB
:100D10004000000000000000FFFFFFFF0000000097
:100D2000FFFF0000000000000000000000000000C5
:100D300000000000FFFFFFFF00000000FFFF0000B9
:100D400000000000000000000000000000000000A3
:100D5000FFFFFFFF00000000FFFF00000000000099
:100D6000000000000000000000000000FFFFFFFF87
:100D700000000000FFFF0000000000000000000075
:100D80000000000000000000FFFFFFFF0000000067
:100D9000FFFF000000000000000000000000000055
:100DA0004343323532302045585449002D31644296
:100DB0006D000000313164426D0000003134644246
:100DC0006D000000313664426D000000313764422E
:100DD0006D000000000000000000000000000000A6
:100DE00043433235323020455843000000000000B4
:100DF0000200000000000000A1D2000801D300089A
:100E000040004000DC1A0020F01A00200200000020
:100E100000000000000000000000000000000000D2
:100E200043000000700E01080000000000000000F8
:100E3000030000000000000061D300080000000073
:100E400010000000701800200000000001000000E9
:100E50000000000000000000000000000000000092
:100E600001020108D101010861D200080000000060
:100E700009024300020100C032090400000102021D
:100E800001000524001001052401000104240202D0
:100E90000524060001070582030800FF090401007C
:100EA000020A000000070501024000000705810258
:100EB00040000000000000000000000000000000F2
:100EC0001201100102000040830440570002010299
:100ED000030100000000000000000000000000000E
:100EE00004030904000000000000000000000000EE
:100EF0002603530054004D006900630072006F0028
:100F000065006C0065006300740072006F006E0085
:100F10006900630073000000000000000000000092
:100F20003803430068006900620069004F00530005
:100F30002F00520054002000560069007200740017
:100F4000750061006C00200043004F004D00200040
:100F500050006F00720074000000000000000000EC
:100F600008033300300031000000000000000000E2
:100F700004000000E00E010826000000F00E010849
:100F800038000000200F010808000000600F010871
:100F9000180C002001010200000000000000000009
:100FA00012000000C00E0108000000000000000058
:100FB0004343323532302054780000004343323509
:100FC00032302052580000000000000000000000F5
:100FD0000000000000000000000000000000000011
:100FE0000000000000000000000000000000000001
:100FF00000000000000000000000000000000000F1
:1010000000000000000000000100000011FD0008C9
:1010100000000000000000000000000000000000D0
:1010200000000000000000000000000000000000C0
:1010300000000000000000000000000000000000B0
:1010400000000000000000000000000000000000A0
:101050000000000000000000000000000000000090
:101060000000000000000000000000000000000080
:101070000000000000000000000000000000000070
:101080000000000000000000000000000000000060
:1010900000002110422063308440A550C660E770F4
:1010A000088129914AA16BB18CC1ADD1CEE1EFF19C
:1010B0003112100273325222B5529442F772D66244
:1010C000399318837BB35AA3BDD39CC3FFF3DEE3EC
:1010D0006224433420040114E664C774A444855494
:1010E0006AA54BB528850995EEE5CFF5ACC58DD53C
:1010F0005336722611163006D776F6669556B446E4
:101100005BB77AA719973887DFF7FEE79DD7BCC78B
:10111000C448E5588668A778400861180228233833
:10112000CCC9EDD98EE9AFF9488969990AA92BB9DB
:10113000F55AD44AB77A966A711A500A333A122A83
:10114000FDDBDCCBBFFB9EEB799B588B3BBB1AAB2B
:10115000A66C877CE44CC55C222C033C600C411CD3
:10116000AEED8FFDECCDCDDD2AAD0BBD688D499D7B
:10117000977EB66ED55EF44E133E322E511E700E23
:101180009FFFBEEFDDDFFCCF1BBF3AAF599F788FCB
:101190008891A981CAB1EBA10CD12DC14EF16FE1AB
:1011A0008010A100C230E3200450254046706760E3
:1011B000B9839893FBA3DAB33DC31CD37FE35EF3FB
:1011C000B1029012F322D232354214527762567233
:1011D000EAB5CBA5A89589856EF54FE52CD50DC54B
:1011E000E234C324A0148104667447642454054483
:1011F000DBA7FAB79987B8975FE77EF71DC73CD79B
:10120000D326F2369106B0165766767615463456D2
:101210004CD96DC90EF92FE9C899E9898AB9ABA9EA
:101220004458654806782768C018E1088238A32822
:101230007DCB5CDB3FEB1EFBF98BD89BBBAB9ABB3A
:10124000754A545A376A167AF10AD01AB32A923A72
:101250002EFD0FED6CDD4DCDAABD8BADE89DC98D8A
:10126000267C076C645C454CA23C832CE01CC10CC2
:101270001FEF3EFF5DCF7CDF9BAFBABFD98FF89FDA
:10128000176E367E554E745E932EB23ED10EF01E12
:101290005553422D53657269616C2070726F63659E
:1012A000737300005553422D53657269616C20724F
:0412B0006561640010
:1012B800009600000000080030F931C136F8371AEE
:1012C800468547144A3F4C5A4F0353165610570E3B
:1012D80058030C6044002009212D222C23072446A2
:0812E8002547260F00004F000E
:040000050800C0012E
:00000001FF
