:020000040800F2
:100000000004002001C0000871D1000871D100086F
:1000100071D1000871D1000871D1000871D10008B8
:1000200071D1000871D1000871D1000871D10008A8
:1000300071D1000871D1000811DD000821EF00081E
:1000400071D1000811F4000801F5000831F500082D
:1000500071D1000871D1000831F2000861F2000886
:1000600091F20008C1F20008F1F2000801EA00086C
:1000700031EA000861EA000891EA0008C1EA0008D4
:10008000F1EA000821EB0008E1F0000821F800087F
:1000900061F80008C1F8000821F9000821F3000800
:1000A00071D1000871D1000871D1000871D1000828
:1000B00071D10008710F010871D1000881FE00089C
:1000C000A1FE0008D1FE0008F1FE000871D1000871
:1000D00071D1000871D1000871D1000871D10008F8
:1000E00091F3000841F4000871F4000871D1000890
:1000F00071D1000871D1000871D1000851EB0008DE
:1001000071D1000871D1000871D1000871D10008C7
:1001100071D1000871D1000871D1000871D10008B7
:1001200081EB0008B1EB0008E1EB000811EC0008DE
:1001300041EC000871D10008A1F4000871D1000859
:1001400071D1000871D1000871D10008410B01087C
:1001500071EC0008A1EC0008D1EC000871D1000896
:1001600071D1000871D1000871D1000871D1000867
:10017000D1F4000871D1000871D1000871D10008D4
:1001800071D1000871D1000871D1000871D1000847
:1001900071D1000871D1000871D1000871D1000837
:1001A00071D1000871D1000871D1000871D1000827
:1001B00071D1000871D1000871D1000871D1000817
:10C0000072B6334880F3098840F20000CCF2000099
:10C010004EF63471CEF200010860BFF34F8FBFF3CC
:10C020006F8F40F20000C0F2F0004EF68851CEF261
:10C0300000010860BFF34F8FBFF36F8F4FF0000018
:10C04000E1EE100A4EF63C71CEF2000108600620C7
:10C0500080F31488BFF36F8F01F072F804F0D0FF03
:10C060001C481D491D4A91423CBF41F8040BFAE7A8
:10C070001B49174A91423CBF41F8040BFAE71949A2
:10C08000194A1A4B9A423EBF51F8040B42F8040B6E
:10C09000F8E700201649174A91423CBF41F8040BCB
:10C0A000FAE701F055F8144C144DAC4203DA54F899
:10C0B000041B8847F9E705F09BFC114C114DAC427D
:10C0C00003DA54F8041B8847F9E701F049B8000087
:10C0D00000080020555555550000002000040020A0
:10C0E000000400204071010800080020B410002066
:10C0F000B81000200C6C002000C0000800C0000830
:10C1000000C0000800C0000800000000000000009F
:10C110002DE9F04F2DED108AC1F80CD0D0F80CD0DD
:10C12000BDEC108ABDE8F08F62B62846A04700201B
:10C1300001F00EFB01F034FA4EF60453CEF2000388
:10C140004FF080521A6062B6FEE700000000000067
:10C1500081F0004102E000BF83F0004330B54FEAB8
:10C1600041044FEA430594EA050F08BF90EA020F25
:10C170001FBF54EA000C55EA020C7FEA645C7FEAB8
:10C18000655C00F0E2804FEA5454D4EB5555B8BFDB
:10C190006D420CDD2C4480EA020281EA030382EA4C
:10C1A000000083EA010180EA020281EA0303362DDE
:10C1B00088BF30BD11F0004F4FEA01314FF4801CB1
:10C1C0004CEA113102D0404261EB410113F0004FC3
:10C1D0004FEA03334CEA133302D0524263EB43037A
:10C1E00094EA050F00F0A780A4F10104D5F1200E18
:10C1F0000DDB02FA0EFC22FA05F2801841F1000173
:10C2000003FA0EF2801843FA05F359410EE0A5F146
:10C2100020050EF1200E012A03FA0EFC28BF4CF077
:10C22000020C43FA05F3C01851EBE37101F000452D
:10C2300007D54FF0000EDCF1000C7EEB00006EEB3A
:10C240000101B1F5801F1BD3B1F5001F0CD34908C4
:10C250005FEA30004FEA3C0C04F101044FEA44521B
:10C2600012F5800F80F09A80BCF1004F08BF5FEAA2
:10C27000500C50F1000041EB045141EA050130BD82
:10C280005FEA4C0C404141EB010111F4801FA4F125
:10C290000104E9D191F0000F04BF01460020B1FA7A
:10C2A00081F308BF2033A3F10B03B3F120020CDAB2
:10C2B0000C3208DD02F1140CC2F10C0201FA0CF090
:10C2C00021FA02F10CE002F11402D8BFC2F1200CF5
:10C2D00001FA02F120FA0CFCDCBF41EA0C019040AB
:10C2E000E41AA2BF01EB0451294330BD6FEA0404F4
:10C2F0001F3C1CDA0C340EDC04F11404C4F12002DF
:10C3000020FA04F001FA02F340EA030021FA04F3F0
:10C3100045EA030130BDC4F10C04C4F1200220FA47
:10C3200002F001FA04F340EA0300294630BD21FA85
:10C3300004F0294630BD94F0000F83F4801306BF4B
:10C3400081F480110134013D4EE77FEA645C18BF3F
:10C350007FEA655C29D094EA050F08BF90EA020FD6
:10C3600005D054EA000C04BF1946104630BD91EACE
:10C37000030F1EBF0021002030BD5FEA545C05D1D1
:10C380004000494128BF41F0004130BD14F5800410
:10C390003CBF01F5801130BD01F0004545F0FE4184
:10C3A00041F470014FF0000030BD7FEA645C1ABFB9
:10C3B000194610467FEA655C1CBF0B46024650EAF0
:10C3C000013406BF52EA033591EA030F41F400211C
:10C3D00030BD00BF90F0000F04BF0021704730B5A2
:10C3E0004FF4806404F132044FF000054FF0000177
:10C3F00050E700BF90F0000F04BF0021704730B538
:10C400004FF4806404F1320410F0004548BF40420C
:10C410004FF000013EE700BF42004FEAE2014FEA61
:10C4200031014FEA02701FBF12F07F4393F07F4F3C
:10C4300081F06051704792F0000F14BF93F07F4F6E
:10C44000704730B54FF4607401F0004521F00041B1
:10C4500020E700BF50EA010208BF704730B54FF037
:10C4600000050AE050EA010208BF704730B511F03C
:10C47000004502D5404261EB41014FF4806404F174
:10C4800032045FEA915C3FF4DCAE4FF003025FEAF6
:10C49000DC0C18BF03325FEADC0C18BF033202EB7E
:10C4A000DC02C2F1200300FA03FC20FA02F001FAD8
:10C4B00003FE40EA0E0021FA02F11444C1E600BF77
:10C4C00070B54FF0FF0C4CF4E06C1CEA11541DBF2A
:10C4D0001CEA135594EA0C0F95EA0C0F00F0DEF8F5
:10C4E0002C4481EA030621EA4C5123EA4C5350EADA
:10C4F000013518BF52EA033541F4801143F480132B
:10C5000038D0A0FB02CE4FF00005E1FB02E506F0BB
:10C510000042E0FB03E54FF00006E1FB03569CF010
:10C52000000F18BF4EF0010EA4F1FF04B6F5007F16
:10C5300064F5407404D25FEA4E0E6D4146EB060688
:10C5400042EAC62141EA55514FEAC52040EA5E5011
:10C550004FEACE2EB4F1FD0C88BFBCF5E06F1ED8BB
:10C56000BEF1004F08BF5FEA500E50F1000041EBF2
:10C57000045170BD06F0004646EA010140EA02009F
:10C5800081EA0301B4EB5C04C2BFD4EB0C0541EAC1
:10C59000045170BD41F480114FF0000E013C00F3D6
:10C5A000AB8014F1360FDEBF002001F0004170BDFA
:10C5B000C4F10004203C35DA0C341BDC04F1140413
:10C5C000C4F1200500FA05F320FA04F001FA05F29F
:10C5D00040EA020001F0004221F0004110EBD3706C
:10C5E00021FA04F642EB06015EEA430E08BF20EA98
:10C5F000D37070BDC4F10C04C4F1200500FA04F33B
:10C6000020FA05F001FA04F240EA020001F00041CC
:10C6100010EBD37041F100015EEA430E08BF20EA3F
:10C62000D37070BDC4F1200500FA05F24EEA020E87
:10C6300020FA04F301FA05F243EA020321FA04F0B6
:10C6400001F0004121FA04F220EA020000EBD3706D
:10C650005EEA430E08BF20EAD37070BD94F0000F6D
:10C660000FD101F00046400041EB010111F4801FA1
:10C6700008BF013CF7D041EA060195F0000F18BF52
:10C68000704703F00046520043EB030313F4801F8E
:10C6900008BF013DF7D043EA0603704794EA0C0F48
:10C6A0000CEA135518BF95EA0C0F0CD050EA41065E
:10C6B00018BF52EA4306D1D181EA030101F00041DB
:10C6C0004FF0000070BD50EA410606BF1046194603
:10C6D00052EA430619D094EA0C0F02D150EA01360F
:10C6E00013D195EA0C0F05D152EA03361CBF104650
:10C6F00019460AD181EA030101F0004141F0FE41EF
:10C7000041F470014FF0000070BD41F0FE4141F472
:10C71000780170BD70B54FF0FF0C4CF4E06C1CEA72
:10C7200011541DBF1CEA135594EA0C0F95EA0C0F27
:10C7300000F0A7F8A4EB050481EA030E52EA0335E2
:10C740004FEA013100F088804FEA03334FF0805503
:10C7500045EA131343EA12634FEA022245EA111530
:10C7600045EA10654FEA00260EF000419D4208BFE1
:10C77000964244F1FD0404F5407402D25B084FEA8E
:10C780003202B61A65EB03055B084FEA32024FF43A
:10C7900080104FF4002CB6EB020E75EB030E22BF97
:10C7A000B61A754640EA0C005B084FEA3202B6EB57
:10C7B000020E75EB030E22BFB61A754640EA5C0006
:10C7C0005B084FEA3202B6EB020E75EB030E22BF96
:10C7D000B61A754640EA9C005B084FEA3202B6EB97
:10C7E000020E75EB030E22BFB61A754640EADC0056
:10C7F00055EA060E18D04FEA051545EA16754FEAB8
:10C8000006164FEAC30343EA52734FEAC2025FEAD5
:10C810001C1CC0D111F4801F0BD141EA00014FF064
:10C8200000004FF0004CB6E711F4801F04BF014335
:10C830000020B4F1FD0C88BFBCF5E06F3FF6AFAE51
:10C84000B5EB030C04BFB6EB020C5FEA500C50F1E1
:10C85000000041EB045170BD0EF0004E4EEA113164
:10C8600014EB5C04C2BFD4EB0C0541EA045170BD6B
:10C8700041F480114FF0000E013C90E645EA060EAF
:10C880008DE60CEA135594EA0C0F08BF95EA0C0FDD
:10C890003FF43BAF94EA0C0F0AD150EA01347FF425
:10C8A00034AF95EA0C0F7FF425AF104619462CE7FC
:10C8B00095EA0C0F06D152EA03353FF4FDAE10465F
:10C8C000194622E750EA410618BF52EA43067FF4B0
:10C8D000C5AE50EA41047FF40DAF52EA43057FF440
:10C8E000EBAE12E7000000000000000000000000B6
:10C8F0004FEA410212F5001215D211D56FF4787388
:10C90000B3EB625212D94FEAC12343F0004343EA2A
:10C91000505311F0004F23FA02F018BF4042704705
:10C920004FF00000704750EA013005D111F000408F
:10C9300008BF6FF0004070474FF00000704700BF25
:10C94000844641EA000313F003036DD1403A41D31A
:10C9500051F8043B40F8043B51F8043B40F8043BD9
:10C9600051F8043B40F8043B51F8043B40F8043BC9
:10C9700051F8043B40F8043B51F8043B40F8043BB9
:10C9800051F8043B40F8043B51F8043B40F8043BA9
:10C9900051F8043B40F8043B51F8043B40F8043B99
:10C9A00051F8043B40F8043B51F8043B40F8043B89
:10C9B00051F8043B40F8043B51F8043B40F8043B79
:10C9C00051F8043B40F8043B51F8043B40F8043B69
:10C9D000403ABDD2303211D351F8043B40F8043B09
:10C9E00051F8043B40F8043B51F8043B40F8043B49
:10C9F00051F8043B40F8043B103AEDD20C3205D319
:10CA000051F8043B40F8043B043AF9D2043208D010
:10CA1000D2071CBF11F8013B00F8013B01D30B8882
:10CA200003806046704700BF082A13D38B078DD060
:10CA300010F003038AD0C3F10403D21ADB071CBF32
:10CA400011F8013B00F8013B80D331F8023B20F89C
:10CA5000023B7BE7043AD9D3013A11F8013B00F8D5
:10CA6000013BF9D20B7803704B7843708B7883705D
:10CA70006046704700000000000000000000000059
:10CA80004FF0FF3C06E000BF4FF0010C02E000BF9A
:10CA90004FF0010C4DF804CD4FEA410C7FEA6C5C7D
:10CAA0004FEA430C18BF7FEA6C5C1BD001B050EA20
:10CAB000410C0CBF52EA430C91EA030F02BF90EA0B
:10CAC000020F0020704710F1000F91EA030F58BFCA
:10CAD000994208BF90422CBFD8176FEAE37040F02C
:10CAE000010070474FEA410C7FEA6C5C02D150EACA
:10CAF000013C07D14FEA430C7FEA6C5CD6D152EA85
:10CB0000033CD3D05DF8040B704700BF8446104649
:10CB100062468C461946634600E000BF01B5FFF748
:10CB2000B7FF002848BF10F1000F01BD4DF808ED18
:10CB3000FFF7F4FF0CBF012000205DF808FB00BFE9
:10CB40004DF808EDFFF7EAFF34BF012000205DF843
:10CB500008FB00BF4DF808EDFFF7E0FF94BF012090
:10CB600000205DF808FB00BF4DF808EDFFF7CEFF91
:10CB700094BF012000205DF808FB00BF4DF808EDD0
:10CB8000FFF7C4FF34BF012000205DF808FB00BFA1
:10CB900053B94AB9002908BF00281CBF4FF0FF3124
:10CBA0004FF0FF3000F03CB882B0EC462DE9005069
:10CBB00000F01EF8DDF804E002B00CBC704700BFC6
:10CBC0002DE9F041069C154606460F46984600F0B2
:10CBD0002FF805FB01F300FB0838A5FB0023B21A70
:10CBE000434467EB0303C4E90023BDE8F08100BFC1
:10CBF0002DE9F041069C904606460F461D4600F082
:10CC000067F900FB05F5A0FB082308FB0155B21AE4
:10CC10002B4467EB0303C4E90023BDE8F08100BFA8
:10CC2000704700BF0000000000000000000000008E
:10CC300000292DE9F043C0F2A6800026002BC0F2A7
:10CC40009C80884694469E46154604460F46002B17
:10CC50003DD18A4259D9B2FA82F33BB1C3F12002E5
:10CC60009F4020FA02F29D4017439C40290C220C61
:10CC7000B7FBF1FEA8B201FB1E7742EA074700FBB3
:10CC80000EF3BB420AD97F190EF1FF3280F0058105
:10CC9000BB4240F20281AEF1020E2F44FF1AA4B251
:10CCA000B7FBF1F301FB137744EA074700FB03F0FE
:10CCB000B84208D97F1903F1FF3280F0F080B84202
:10CCC00040F2ED80023B43EA0E43002203E08B4238
:10CCD0000FD900221346341C18BF012460424FF0C4
:10CCE000000565EB45015840514000196941BDE818
:10CCF000F083B3FA83F2002A40F086808B4202D39D
:10CD0000844500F2DB800123E5E712B90123B3FB80
:10CD1000F2F5B5FA85F000283BD1781B4FEA154EA5
:10CD20001FFA85FC0122B0FBFEF8210C0EFB180750
:10CD300041EA07470CFB08F3BB4207D97F1908F10A
:10CD4000FF3102D2BB4200F2BD808846FF1AA4B276
:10CD5000B7FBFEF30EFB137744EA07470CFB03FC1B
:10CD6000BC4507D97F1903F1FF3102D2BC4500F25F
:10CD7000A7800B4643EA0843ADE752426FEA060636
:10CD800063EB43035DE7404261EB41014FF0FF3647
:10CD900054E7C0F1200224FA02F107FA00F38540BB
:10CDA0004FEA154ED7401943B7FBFEF20B0C0EFBB2
:10CDB00012771FFA85FC43EA07430CFB02F79F42F8
:10CDC00004FA00F407D95B1902F1FF3074D29F42D4
:10CDD00072D9023A2B44DF1B89B2B7FBFEF80EFB77
:10CDE000187341EA03430CFB08F79F4208D95B190B
:10CDF00008F1FF315CD29F425AD9A8F102082B44B6
:10CE0000D81B48EA02428EE7C2F120032CFA03F154
:10CE10000EFA02FE20FA03F741EA0E0E08FA02F0BB
:10CE200028FA03F14FEA1E453843B1FBF5F8030C2D
:10CE300005FB18111FFA8EF743EA014107FB08F3BF
:10CE40008B420CFA02FC09D911EB0E0108F1FF39F3
:10CE500030D28B422ED9A8F102087144C91A80B28F
:10CE6000B1FBF5F305FB131140EA014107FB03F7A2
:10CE70008F4208D911EB0E0103F1FF3016D28F4219
:10CE800014D9023B714443EA0843C91BA3FB0C8934
:10CE9000494509D305D000221DE79646FEE6134614
:10CEA00011E794404445F6D2013BF4E70346EAE734
:10CEB0008846A5E7C846D1E702468CE713460AE74D
:10CEC000023B57E7A8F102082F443FE700000000AB
:10CED0002DE9F041002B44D18A42154604464FD932
:10CEE000B2FA82F70E464FB1C7F12003B94020FADB
:10CEF00003F602FA07F50E4300FA07F44FEA154E5F
:10CF0000230CB6FBFEF0AFB20EFB106143EA014307
:10CF100007FB00F1994209D95B1900F1FF3280F05B
:10CF2000EC80994240F2E98002382B445A1AA4B2AC
:10CF3000B2FBFEF30EFB132244EA024207FB03F7A7
:10CF4000974208D9521903F1FF3180F0D8809742F7
:10CF500040F2D580023B43EA004000263146BDE85E
:10CF6000F0818B4247D8B3FA83F6002E48D18B422A
:10CF700002D3824200F2CD8001203146BDE8F0812B
:10CF800012B90125B5FBF2F5B5FA85F8B8F1000F35
:10CF900077D14A1B4FEA154EAFB20126B2FBFEF025
:10CFA000230C0EFB102143EA014107FB00F38B42E7
:10CFB00007D9491900F1FF3202D28B4200F2BA8040
:10CFC0001046C91AA4B2B1FBFEF30EFB131144EADA
:10CFD000014407FB03F7A74208D9641903F1FF32A4
:10CFE00080F08F80A74240F28C80023B43EA0040F1
:10CFF0003146BDE8F081002630463146BDE8F0817B
:10D00000C6F1200422FA04F5B3402B4320FA04FCB5
:10D0100001FA06F721FA04F54FEA134E4CEA070726
:10D02000B5FBFEF8390C0EFB18551FFA83FC41EADC
:10D0300005450CFB08F1A94202FA06F204D9ED18E5
:10D0400008F1FF3467D3A0466D1ABFB2B5FBFEF4FA
:10D050000EFB145547EA05410CFB04FC8C4504D932
:10D06000C91804F1FF355CD32C4644EA0844CCEBE4
:10D070000101A4FB0223994248D344D02046002654
:10D080006CE7C8F1200401FA08F305FA08F520FA64
:10D0900004F7E1404FEA154E1F43B1FBFEF63A0C90
:10D0A0000EFB16111FFA85FC42EA01430CFB06F247
:10D0B0009A4200FA08F407D95B1906F1FF3137D21A
:10D0C0009A4235D9023E2B449B1ABFB2B3FBFEF005
:10D0D0000EFB103347EA03430CFB00F1994207D9DA
:10D0E0005B1900F1FF3221D299421FD902382B443B
:10D0F0005A1A40EA0646674650E7104616E70B46BE
:10D1000029E7134672E7B0409042B7D2601E00266E
:10D1100024E7304622E7A94295D9A8F102081D4428
:10D1200092E78C45A0D9023C19449EE71046DFE700
:10D130000E46C9E70238294443E700BF000000005B
:10D14000704700BF00000000000000000000000069
:10D15000704700BF00000000000000000000000059
:10D16000FEE700BF0000000000000000000000001B
:10D17000FEE700BF0000000000000000000000000B
:10D18000FEE700BF000000000000000000000000FB
:10D190001D4B1E4A1E48F0B500249C60DF681D4EE2
:10D1A0001D4D4FF6FF0139400A43DA60F26842F044
:10D1B0008072F260026842F00102026083B083F87C
:10D1C000224000F0EDF800F073F800F059FB00F099
:10D1D0005FFD00F08DFD2846402100F0F1F9A5F13A
:10D1E000300301229861027762B69B690B4999610D
:10D1F00005F1500000944FF4EC71094B00F040FA37
:10D20000084B836103B0F0BD00ED00E00003FA05B8
:10D21000001000E0F0ED00E0E8100020406601089A
:10D2200081D1000830660108000000000000000005
:10D2300072B6014BD862FEE7B81000200000000073
:10D2400070B5114CA269D37F0BB1013BD377116A42
:10D25000E3690E4E01311162A26AB34202F101028A
:10D26000A26210D09D68013D9D6065B91A68D968B9
:10D27000DD605660E26162B61869884772B6E3699C
:10D280009A68002AF2D070BDB8100020D410002097
:10D29000034A516853685B1A9842FBD8704700BF35
:10D2A000001000E00000000000000000000000008E
:10D2B000054B4FF0FF3003F11C02002158629962C8
:10D2C000DA611A62704700BFB81000200000000049
:10D2D00070B40D4EF469A5680361A942C26004D917
:10D2E0002468491BA5688D42FAD3636843600460D3
:10D2F000186060608160A3684FF0FF32591AA16026
:10D30000726270BC704700BFB810002000000000BF
:10D3100003688268416830B49D68064C2A449A606C
:10D320000B60056800224FF0FF336960C2606362E2
:10D3300030BC7047B8100020000000000000000062
:10D3400010B472B6037F072B0ED8DFE803F01D0D73
:10D350000D2108040D08426A93680133936090E838
:10D360000C001A60026853604FF0FF34002281689D
:10D37000094B446202771B689A688A42FBD25A685A
:10D38000426003601060586062B65DF8044B7047FD
:10D39000436A00221A60E7E7B8100020000000008E
:10D3A000034B00221B605B601B615B619A607047EE
:10D3B000B810002000000000000000000000000085
:10D3C00000228168084B10B4044602771B689A68F3
:10D3D0008A42FBD25A6862602360204614605C6017
:10D3E0005DF8044B704700BFB8100020000000003B
:10D3F000084B30B41A68996914680877012504202D
:10D40000C877636015771C60104630BC9A61FEF7E0
:10D410007FBE00BFB8100020000000000000000028
:10D4200030B54B1C87B012D00C4C0D4AA369054691
:10D4300001A8FFF74DFF2846FFF7DAFF049B13B161
:10D4400001A8FFF765FFA369586A07B030BD034C18
:10D45000FFF7CEFFA369586A07B030BDB8100020AF
:10D4600041D30008000000000000000000000000A0
:10D47000144B70B49E6984680546B0686962844242
:10D480004FF000020BD82A771B689A689442FBD9A8
:10D490005A686A602B6015605D6070BC70473277B7
:10D4A0001A46126891688842FBD95068706001245E
:10D4B0003260066056602C77314628469D6170BC0C
:10D4C000FEF726BEB810002000000000000000009B
:10D4D000084B9A691B68D17F9B68906821B9834289
:10D4E00034BF002001207047834294BF00200120F8
:10D4F000704700BFB81000200000000000000000CE
:10D500000E4A1068F0B4036894691360012704267A
:10D510000025A1685A6007779061E677257700E0DB
:10D520001B689A688A42FBD25A686260236021466F
:10D5300014605C60F0BCFEF7EBBD00BFB8100020CB
:10D540000D4A106870B403689469136001260025C1
:10D55000A1685A6006779061257700E01B689A6899
:10D560008A42FBD85A6862602360214614605C607E
:10D5700070BCFEF7CDBD00BFB81000200000000059
:10D58000044B1A689B6992689B689A4200D870475E
:10D59000FFF7D6BFB8100020000000000000000018
:10D5A000034B9B69DB7F0BB1FFF7CABFFFF7A8BF37
:10D5B000B810002000000000000000000000000083
:10D5C0002DE9F041114C016466694661002200F1C9
:10D5D0002C054FF002084FF0040C4FF0010E00F143
:10D5E00028078160046180F81C8080F81FC080F8E3
:10D5F0001EE04277C26382630262826130616061D1
:10D600008762C5620563BDE8F08100BFB8100020E5
:10D610002DE9F04F6439184FDFF86090D7F814E027
:10D62000099E01440025C1604FF0020B0B644FF0CE
:10D63000040A00F12C034FF0010800F1280C4E649D
:10D64000C1F8609082600761C0F814E0026480F85D
:10D650001CB080F81FA080F81E804577C5638563E5
:10D6600005628561CEF81000C0F828C07861C362F9
:10D670000363BDE8F08F00BFB810002029C1000887
:10D680002DE9F84F044672B61A4EDFF86CA07769A0
:10D6900064390144C16000250B6400F12C0B4FF08C
:10D6A000010C00F1280E0A9B4B644FF002094FF069
:10D6B0000408C1F860A0826006614761026480F8D6
:10D6C0001C9080F81F8080F81EC04577C563856375
:10D6D0000562856129463861C0F828E0C0F82CB0A1
:10D6E000C0F830B07061FFF7C3FE62B62046BDE8F7
:10D6F000F88F00BFB810002029C10008000000000A
:10D7000008B5014672B60820FFF78AFE62B608BD6A
:10D7100038B50E4B9C69A36A606204F128059D42EE
:10D7200007D01A68A2621846FFF74AFEA36AAB4206
:10D73000F7D1637F9B0704D1636922691A6122696B
:10D7400053610F20BDE83840FFF752BEB8100020EB
:10D7500072B6FFF7DDBF00BF000000000000000050
:10D7600010B5054CA369036002465A620320FFF717
:10D770003FFEA369586A10BDB810002000000000E9
:10D78000054B02469B6921B1036003205A62FFF7F3
:10D7900047BE4FF0FF307047B81000200000000077
:10D7A00003682BB10022026018465962FFF708BED9
:10D7B000704700BF000000000000000000000000F3
:10D7C00069B1084B10B4024644689B69042083E8A1
:10D7D0001400236053605DF8044BFFF721BE4FF047
:10D7E000FF307047B810002000000000000000006B
:10D7F00038B50368984204460D4609D01A6822607D
:10D80000184654605D62FFF7DBFD23689C42F5D14A
:10D8100038BD00BF00000000000000000000000054
:10D82000014B5B6883607047001000E0000000005F
:10D830000F4B10495A688368F0B48F6FC66841680F
:10D84000D0E90445D31ADB1BE41845F10005013685
:10D850008B42C6608360C0E9044505D802689342E4
:10D8600038BF0360F0BC70474360F0BC704700BF36
:10D87000001000E0B81000200000000000000000D0
:10D88000D0B50C4C86B000234FF0FF32684600261E
:10D890000027A3670193029303930092CDE90467E5
:10D8A000FFF7BEFF6846FFF7C3FF029BA36706B002
:10D8B000D0BD00BFB8100020000000000000000034
:10D8C0000023006040608360704700BF00000000DC
:10D8D000304B826870B59C69002A55D0A168936866
:10D8E0009942054606D9137F9160062B33D0072B4A
:10D8F0001DD09BB12B4603E09968A268914202D3E8
:10D900001B689D42F8D15A686260236014605C60B5
:10D9100065620620BDE87040FFF76ABD92E80A0024
:10D920001960116810464B60FFF74AFDE2E792E884
:10D9300009001860566A10684360334602E0986830
:10D94000884202D31B689E42F9D159685160136026
:10D950000A605A60CEE792E809001860566A1068BB
:10D960004360334602E09868884202D31B689E42B7
:10D97000F9D15968516013600A605A60B268A168B1
:10D9800093688B42AFD3B5E7E36BC3608460E06319
:10D9900070BD00BFB81000200000000000000000B3
:10D9A00008B572B6FFF794FF62B608BD000000002C
:10D9B000144B70B59D6972B60468C368EB63A042EE
:10D9C0001BD0296C4BB11A68934203D092689142E4
:10D9D00038BF1146DB68002BF5D103462268E66BA1
:10D9E000A96020461A6053609C60DE60E363FFF725
:10D9F000E7FCFFF7C5FD62B670BD0023836062B629
:10DA000070BD00BFB8100020000000000000000042
:10DA1000836B027F19430A2A81630AD00B2A00D044
:10DA20007047436A19408B42FAD100234362FFF7E3
:10DA3000C7BC436A1942F8D1704700BF000000001C
:10DA400070B50468A04206460D460DD0E3682B432E
:10DA5000E36015B12269134203D06068A168FFF743
:10DA6000D7FF2468A642F1D170BD00BF00000000BE
:10DA700008B572B6FFF7CCFFFFF782FD62B608BDAE
:10DA800038B50A4B9D6972B6AB6B10EA030406D138
:10DA9000044668620A20FFF7ABFCAB6B1C4023EA2C
:10DAA0000403AB6362B6204638BD00BFB810002047
:10DAB00030B4029C046200250A4485600261006063
:10DAC0004060C16081614161C36130BC704700BF8B
:10DAD0000021C2688160826142616FF00101FFF73D
:10DAE00087BE00BF00000000000000000000000032
:10DAF00038B50D46044672B6C3692BB1984703E0AA
:10DB0000FFF75EFE002811DBA36820462946002BA4
:10DB1000F6D0A169A36825694A1C013BAA42A3600B
:10DB2000A26128BFE368087828BFA36162B638BD48
:10DB30002DE9F8430446884691461D46C76972B6EA
:10DB400000262FB12046B84702E0FFF739FEC8B9DA
:10DB5000A36820462946002BF7D0A269A368511C70
:10DB6000013BA161A360137808F8013B2369A26916
:10DB70009A4224BFE368A36162B60136B14502D080
:10DB800072B6DEE762B63046BDE8F88300000000FA
:10DB900030B4029C04628D180561006040608260B0
:10DBA000C16081614161C36130BC70470000000009
:10DBB00010B40269C4688461121B44616FF00101F2
:10DBC00082605DF8044BFFF713BE00BF0000000049
:10DBD00070B504460E46154672B603E0FFF7F0FD39
:10DBE000002818DBA36820462946002BF6D062697E
:10DBF000A368511C013B6161A360167023696269CF
:10DC00009A4224BFE3686361E3690BB120469847F9
:10DC100062B6002070BD62B670BD00BF000000009B
:10DC20002DE9F04704460D4616469946D0F81C806B
:10DC300072B60027A36805F1010A2046F3B16269B4
:10DC4000A368511C013B6161A3602B7813702369A9
:10DC500062699A4224BFE3686361B8F1000F00D0A3
:10DC6000C04762B6013E07F101070ED072B6A36845
:10DC7000554605F1010A2046002BE0D120464946D1
:10DC8000FFF79EFD0028D5D062B63846BDE8F08784
:10DC9000054A064B0648074922F0070223F007030E
:10DCA00002600B60704700BF136C00200000022070
:10DCB00014130020101300200000000000000000DA
:10DCC00010B472B6084C094B22681968C31D23F0C2
:10DCD0000703891A8B429DBF9B18236010460020C2
:10DCE00062B65DF8044B7047141300201013002037
:10DCF000044B054A1A6003F1100000229A60DA60B2
:10DD0000FFF7DEBD18130020C1DC00080000000092
:10DD1000054A536823F001035360EFF30983683326
:10DD200083F30988704700BF30EF00E00000000077
:10DD300072B6114B5B681B0501D462B6704710B513
:10DD4000F1EE103AEFF309840C4B4FF08072DB6870
:10DD500044F8083C44F84C2CA4F1680383F3098888
:10DD6000FFF7B6FB18B1064B44F8503C10BD054B0D
:10DD700044F8503C10BD00BF00ED00E030EF00E083
:10DD800035C1000838C10008000000000000000094
:10DD900008B501F025F80C4801F012FE00F020F85B
:10DDA00000F056F800F084F800F0B2F800F000F946
:10DDB00000F0AEFA00F00CFB00F0B2F903F028F925
:10DDC000BDE8084000F004B8D0670108000000007A
:10DDD00001F0B6B8000000000000000000000000E4
:10DDE00001F0BEB8000000000000000000000000CC
:10DDF00000230122027043608360C36003614361BA
:10DE00001830FFF75DBD00BF0000000000000000FB
:10DE100010B5044672B6416001F0C2F802232370C7
:10DE200062B610BD0000000000000000000000000D
:10DE300038B572B603258260C3600161057001F0D8
:10DE4000E7F862B638BD00BF000000000000000027
:10DE500001F09EBD00000000000000000000000076
:10DE6000F0B500F1080200F110034FF0010C4FF083
:10DE7000000E00F1180700F11C0600F1200500F16A
:10DE8000240400F1280180F800C0C0F804E0876194
:10DE9000C6610562446281628260C260036143615F
:10DEA000F0BD00BF00000000000000000000000006
:10DEB00001F096BB00000000000000000000000020
:10DEC0000122002302704360704700BF0000000081
:10DED00010B5044672B6416001F0F2FB02232370D4
:10DEE00062B610BD0000000000000000000000004D
:10DEF00008B572B601F07CFB62B608BD00000000F8
:10DF000008B572B601F0C4FB62B608BD000000009F
:10DF100002F006B800000000000000000000000051
:10DF200001220023027043600C30FFF7C9BC00BF20
:10DF300010B5044672B6416002F01AF8022323704D
:10DF400062B610BD000000000000000000000000EC
:10DF5000F0B585B004460A9F0B9E72B64FF0030ED3
:10DF6000019600250C9E00970296856080F800E0DF
:10DF700002F0F6F8431C0CBF05230223237062B69F
:10DF800005B0F0BD0000000000000000000000002F
:10DF90000C30FFF705BD00BF0000000000000000CE
:10DFA0000C30FFF705BD00BF0000000000000000BE
:10DFB00003F016B8000000000000000000000000A0
:10DFC0000023012202704360C3600374704700BFE6
:10DFD00010B5046AD4F8542213681978042900D0C3
:10DFE00010BD217A0229FBD111791A8901238B40B6
:10DFF0001342F5D1226CE36BA16BD31A5B1AEFD0FD
:10E0000062B6D4F854221068117904F1300200F09D
:10E0100037FA72B6D4F85432BDE81040186819794E
:10E0200000F056BA000000000000000000000000F0
:10E0300010B5046AD4F8542213681978042900D062
:10E0400010BD217A0229FBD15179588903EB810354
:10E050000122DB688A4002425B8AF1D1A269E16950
:10E060006069891A0A1A9342EAD862B6B2FBF3F2DF
:10E07000D4F8541203FB02F30868497904F10C0246
:10E0800000F0EEF972B6D4F85432BDE810401868CA
:10E09000597900F005BA00BF000000000000000040
:10E0A0000C30FFF745BD00BF00000000000000007D
:10E0B0000C304FF0FF33FFF73BBD00BF0000000006
:10E0C0003030FFF7ADBD00BF0000000000000000D1
:10E0D00030304FF0FF33FFF7A3BD00BF000000005A
:10E0E0000C30FFF705BD00BF00000000000000007D
:10E0F0000C304FF0FF31FFF7FBBC00BF0000000009
:10E100003030FFF765BD00BF0000000000000000D8
:10E1100030304FF0FF32FFF75BBD00BF0000000062
:10E12000704700BF00000000000000000000000079
:10E1300010B503460E4A43F8042B82B00446012270
:10E14000009004F15401436002720A4B0C304FF40A
:10E150008072FFF7ADFC009404F1300004F5AA7161
:10E160004FF48072044BFFF713FD02B010BD00BFE7
:10E170006066010831E00008D1DF000800000000FF
:10E180000B6872B60A7903EB820290614A79093210
:10E1900043F822008A7912B103EB820398610223CB
:10E1A000C0F85412037262B6704700BF000000004E
:10E1B00070B5D0F8543200F10C06044630461D68A4
:10E1C000FFF786FC04F13000FFF7F2FC201D01216F
:10E1D000FFF736FCD4F85432597905EB8103284611
:10E1E000DB6832465B8A00F03BF9D4F854322846AB
:10E1F0005979BDE8704000F053B900BF000000003D
:10E2000090F8443003F06003202B01D000207047C9
:10E2100090F84530212B03D0222B09D0202BF5D1AB
:10E22000064B836307220023C26303640120704707
:10E2300000238363C3630364012070470008002048
:10E2400000EB810370B59C699CB10E46054672B621
:10E250000821201DFFF7F4FB226CE36BA16BD31A9E
:10E260005B1A0BD105EB8603DB685A6952680AB961
:10E2700062B670BD1B8A013B1340F9D162B604F14E
:10E2800030022846314600F0FBF872B62846314687
:10E2900000F01EF9ECE700BF0000000000000000E5
:10E2A00001F109032DE9F04150F8236096B1804651
:10E2B0000F4672B604217018FFF7C2FB08EB870304
:10E2C000B469DA68F5697369518A2D1BEC1AA142A9
:10E2D00002D962B6BDE8F08162B6B4FBF1F306F193
:10E2E0000C0201FB03F34046394600F0B9F872B660
:10E2F0004046394600F0D4F8EBE700BF00000000CC
:10E30000704700BF00000000000000000000000097
:10E3100002F046BD00000000000000000000000008
:10E32000002301220270436083600C30FFF7C8BAFB
:10E3300010B5044672B6416002F05AFD0223237004
:10E3400062B610BD000000000000000000000000E8
:10E3500008B572B602F09CFD62B608BD0000000070
:10E3600008B572B602F09CFD62B608BD0000000060
:10E3700038B5044672B6032504F8085B02F098FD30
:10E380002046FFF7EDF962B638BD00BF000000007F
:10E3900010B5044672B6032304F8083B02F0A8FD4A
:10E3A0002046FFF7DDF962B610BD00BF0000000097
:10E3B00010B5044672B6032304F8083B02F0B8FD1A
:10E3C0002046FFF7CDF962B610BD00BF0000000087
:10E3D00002F0CEB8000000000000000000000000C5
:10E3E0000023012202704360C36183620362C3623F
:10E3F0004362036303814381704700BF0000000054
:10E4000010B5044672B60023C360036143618361A3
:10E41000416002F0C5F80223237062B610BD00BF50
:10E4200070B50646506914460D4618B100211422F5
:10E4300004F046FBA06918B10021142204F040FB4F
:10E4400006EB85033046DC602946BDE8704002F0EB
:10E4500097B900BF000000000000000000000000AD
:10E4600070B400EB81040126E468A4690025E26031
:10E4700063602670A56070BC02F062BA0000000004
:10E4800070B400EB81040126E46864690025E26051
:10E4900063602670A56070BC02F0CABA000000007C
:10E4A000012270B502FA01F344899BB213EA040613
:10E4B00001D0104670BD2343438102F0B9FB3046C2
:10E4C00070BD00BF00000000000000000000000060
:10E4D000012270B502FA01F304899BB213EA040623
:10E4E00001D0104670BD2343038102F0B1FB3046DA
:10E4F00070BD00BF00000000000000000000000030
:10E50000002202210170A0F84C2080F84E2080F8F3
:10E510004F2002814281C26002614261826180F8C3
:10E52000342002F0B5B800BF000000000000000079
:10E53000F8B50023044680F8343000F1440202F0BC
:10E54000EFF963689B684BB32046984730B3E56B9F
:10E5500094F8443094F84B1094F84A2042EA01228F
:10E56000AA423CBFE263154613F0800FE36840F017
:10E570008180002D69D15B69052284F83420204612
:10E580001D70DD605D609D60294602F051FA72B633
:10E5900020462946FFF79CFF62B6F8BD94F8443048
:10E5A00013F0600711D02046002102F079FB2046CD
:10E5B000002102F065FB63681B6813B1204605214A
:10E5C0009847062384F83430F8BD94F8455003F09A
:10E5D0007F0242EA0526B6F5407F00F0F68016D9A4
:10E5E000B6F5C06F00F0D8806DD9B6F5106F7DD04C
:10E5F00040F60242964200F0FB80B6F5006FD2D1A1
:10E6000004F14F0201252764A263E563A2E7022E0D
:10E6100000F0AB8040F2A080B6F5807F00F08C80E7
:10E62000B6F5817FBFD194F84620002ABBD194F87B
:10E63000482012F00F0154D01206204600F100814C
:10E6400002F03EFB94F844304BE09B69A26B00263D
:10E65000042184F8341020463146DA605D601E7073
:10E660009E6002F06DF972B620463146FFF718FF42
:10E6700062B6F8BDA5B15B69A26B0026012184F8E2
:10E68000341020463146DA605D601E709E6002F0F4
:10E69000CFF972B620463146FFF71AFF62B6F8BDD1
:10E6A0009B69032284F8342020461D70DD605D6084
:10E6B0009D60294602F044F972B620462946FFF7CC
:10E6C000EFFE62B6F8BD40F20232964221D0B6F5B6
:10E6D000A06F7FF468AFB4F84420B2F5A06F00F0EB
:10E6E0009D800025A563E563256433E794F8462003
:10E6F00084F84F20002A40F0828003222270626852
:10E700001268002AEDD020460221904794F8443048
:10E71000E7E794F84620002A7FF445AF94F84820B4
:10E7200012F00F01DDD01306204600F18E8002F0BA
:10E73000A7FA94F84430D4E794F84620012A7FF4ED
:10E7400032AFB4F84C20A76322F00202E7632764DB
:10E750003D46A4F84C20FDE6002E46D104F14C02C3
:10E7600002252664A263E563F4E694F8481011F0EC
:10E77000800F204601F00F0144D102F0B1F80128CA
:10E7800044D002287FF40FAF324BA363E0632764C9
:10E79000054694F84430DDE6626894F8490094F840
:10E7A0004830556894F8471094F8462043EA00230F
:10E7B0002046A84700283FF4F6AE43680568E563A5
:10E7C000A363276494F84430C4E694F84620012AF1
:10E7D0007FF4E9AEB4F84C20A76342F00202E7638D
:10E7E00027643D46A4F84C20B4E6012E7FF4DBAE4E
:10E7F000194AA26302250022E5632264AAE60422E4
:10E8000022707CE702F07CF80128BAD1134BA36395
:10E81000E6632764354694F844309BE694F8463026
:10E8200084F84E30204601F09BFF63681B6813B1EB
:10E83000204601219847032294F84430227050E783
:10E8400002F04EFA94F844304BE702F029FA94F8BB
:10E85000443046E79066010880660108A06601081A
:10E8600038B590F834300446062B15D8DFE803F0AD
:10E8700004311C0404150400002102F011FA2046A2
:10E88000002102F0FDF963681B6813B120460521E1
:10E890009847062384F8343038BD036C03B1984799
:10E8A000002384F8343038BDC3689B6900250322F7
:10E8B00084F8342029461D70DD605D609D6020462F
:10E8C00002F03EF872B620462946FFF7E9FD62B62F
:10E8D00038BD90F84B2090F84A30C16B43EA0223D0
:10E8E0008B42C368E1D91D8AB1FBF5F205FB121515
:10E8F000002DDAD15B6929461D70DD605D609D6089
:10E9000002F096F872B629462046FFF7E1FD62B69E
:10E91000022384F8343038BD0000000000000000FD
:10E9200090F83420062A38B50AD80123934013F012
:10E93000670F044611D113F0080502D1DB061DD480
:10E9400038BDC3689B699B68002BF9D1036C03B188
:10E950009847002384F8343038BD002102F0A0F934
:10E960002046002102F08CF963681B6813B1204631
:10E9700005219847062384F8343038BDC3685B69A5
:10E98000052280F8342029461D70DD605D609D60A1
:10E9900002F04EF872B620462946FFF799FD62B69E
:10E9A00038BD00BF000000000000000000000000B3
:10E9B00043099B0010B403F1604300F1604404F587
:10E9C000614403F56143090100F01F000122824008
:10E9D000C9B284F80013C3F880211A605DF8044BB3
:10E9E000704700BF000000000000000000000000B1
:10E9F00000F1604000F56D400901C9B20176704731
:10EA000008B5074B074A196801F03D019960136882
:10EA10000BB150689847BDE80840FFF789B900BFBF
:10EA200000600240381300200000000000000000D9
:10EA3000084B094819688268890901F03D0110B541
:10EA40008C019C600AB1C0689047BDE81040FFF798
:10EA50006FB900BF006002403813002000000000C2
:10EA6000084B094819680269090C01F03D0110B50D
:10EA70000C049C600AB140699047BDE81040FFF764
:10EA800057B900BF006002403813002000000000AA
:10EA9000084B094819688269890D01F03D0110B5DC
:10EAA0008C059C600AB1C0699047BDE81040FFF733
:10EAB0003FB900BF00600240381300200000000092
:10EAC00008B5074B07485968026A01F03D01D96053
:10EAD0000AB1406A9047BDE80840FFF729B900BF76
:10EAE0000060024038130020000000000000000019
:10EAF000084B09485968826A890901F03D0110B53F
:10EB00008C01DC600AB1C06A9047BDE81040FFF795
:10EB10000FB900BF00600240381300200000000061
:10EB2000084B09485968026B090C01F03D0110B50A
:10EB30000C04DC600AB1406B9047BDE81040FFF761
:10EB4000F7B800BF0060024038130020000000004A
:10EB5000084B09485968826B890D01F03D0110B5D9
:10EB60008C05DC600AB1C06B9047BDE81040FFF730
:10EB7000DFB800BF00600240381300200000000032
:10EB800008B5074B07481968026C01F03D01996010
:10EB90000AB1406C9047BDE80840FFF7C9B800BF14
:10EBA0000064024038130020000000000000000054
:10EBB000084B09481968826C890901F03D0110B5BC
:10EBC0008C019C600AB1C06C9047BDE81040FFF713
:10EBD000AFB800BF006402403813002000000000FE
:10EBE000084B09481968026D090C01F03D0110B588
:10EBF0000C049C600AB1406D9047BDE81040FFF7DF
:10EC000097B800BF006402403813002000000000E5
:10EC1000084B09481968826D890D01F03D0110B556
:10EC20008C059C600AB1C06D9047BDE81040FFF7AD
:10EC30007FB800BF006402403813002000000000CD
:10EC400008B5074B07485968026E01F03D01D960CD
:10EC50000AB1406E9047BDE80840FFF769B800BFB1
:10EC60000064024038130020000000000000000093
:10EC7000084B09485968826E890901F03D0110B5B9
:10EC80008C01DC600AB1C06E9047BDE81040FFF710
:10EC90004FB800BF0064024038130020000000009D
:10ECA000084B09485968026F090C01F03D0110B585
:10ECB0000C04DC600AB1406F9047BDE81040FFF7DC
:10ECC00037B800BF00640240381300200000000085
:10ECD000084B09485968826F890D01F03D0110B554
:10ECE0008C05DC600AB1C06F9047BDE81040FFF7AB
:10ECF0001FB800BF0064024038130020000000006D
:10ED00000D4B30B400220D4D0D4C1A6011461346C8
:10ED1000A858016044F833100133102B02F10C02A3
:10ED2000F6D10849084A4FF0FF338B6030BCCB6006
:10ED30009360D360704700BFB8130020B06601082D
:10ED40003813002000600240006402400000000010
:10ED5000F8B51F4F467A3D68012404FA06FE1EEA04
:10ED6000050F31D11B4C4EEA050504EBC60C15F01E
:10ED7000FF0F3D6044F83620CCF8043004D0164C28
:10ED8000236B43F40013236315F47F4F16D10568FA
:10ED90002B6823F01F032B602B6813F00104FBD1B9
:10EDA000077A46683D23BB40212733602C606F61A2
:10EDB00062B1807AFFF7FCFD2046F8BD064C236B5C
:10EDC00043F480032363E2E72046F8BD1046F8BD14
:10EDD000B813002038130020003802400000000063
:10EDE000174B4FF0FF311A69002210B419611A61F4
:10EDF000586959615A61186A124C60F08050186263
:10EE00001A62586A59625A62196C41F08051196449
:10EE1000216841F480712160196F01F44071B1F5EE
:10EE2000007F03D04FF4803119671A67054A5DF8F7
:10EE3000044B536823F400735360FFF761BF00BFB6
:10EE40000038024000700040000000000000000098
:10EE50002C492D4B4FF080504FF4404208641A600B
:10EE60000B6843F001030B600A68264B9007FBD543
:10EE70009A6822F003029A609A689A6019468B6831
:10EE8000204A13F00C03FAD1116801F0F901116066
:10EE90009360136843F4803313601168194B89033E
:10EEA000FBD55A6F42F001025A675A6F1549900715
:10EEB000FBD5164B4B600B68134A43F080730B6015
:10EEC00053685904FCD50F490A680E4B9201FBD5D3
:10EED0000F4A1049996040F2057111609A6842F03A
:10EEE00002029A601A469368064903F00C03082B45
:10EEF000F9D14B6C43F480434B644B6E43F4804335
:10EF00004B667047003802400070004008544007CC
:10EF1000003C02400094083800000000000000009F
:10EF200008B572B6FEF78CF962B6BDE80840FEF788
:10EF3000FFBE00BF00000000000000000000000055
:10EF4000054B44F29F1000210722586099600B2066
:10EF500008211A60FFF74CBD10E000E0000000003F
:10EF600010B5084C2046FEF743FF0749074A084BF7
:10EF7000A162E262236312200621BDE81040FFF780
:10EF800017BD00BFBC1300200020014040670108EE
:10EF9000162C02000000000000000000000000002D
:10EFA0000378012B00D07047114B984210B50446EE
:10EFB0000DD01048A26A436803F44003002143F4D3
:10EFC00080330124436051609160946010BD0A4A0F
:10EFD000C06A06212346FFF7BBFEE36A074A1B68A7
:10EFE00007499960536C43F480735364E1E700BFB1
:10EFF000BC1300200023014051F1000800380240FA
:10F000004C20014000000000000000000000000053
:10F010000369016B1A782DE9F043C4682AB1012C09
:10F0200094BF41F4807141F48471C56A5A882D6897
:10F030008668EE6002FB04F203F118086A60DC687F
:10F04000296098E800512E681969826AD3F81490F3
:10F050005F6A44F0806343F4807346F0010000244B
:10F0600028601460C2F80C90C2F81080C2F82CC05E
:10F07000C2F830E0576353604B0006D441F440714E
:10F0800041F001019160BDE8F08321F0804323F05D
:10F09000020343F4407341F4407143F0030341F031
:10F0A000030193609160BDE8F08300BF00000000A1
:10F0B000C16A0A68136823F01F031360136813F012
:10F0C0000103FBD130B40D7A4C68826A3D21A9401E
:10F0D00001202160536030BC93609060704700BF96
:10F0E000164B1A6800211960930624D510B5144CEC
:10F0F000E36A1B685B68D3B12369C3B12046FFF79D
:10F10000D7FF23699B684BB105222270204601215D
:10F1100098472378052B04BF022323700023236123
:10F1200072B608484FF0FF31FEF73AFB62B6BDE811
:10F130001040FEF7FDBDFEF7FBBD00BF0020014003
:10F14000BC130020D01300200000000000000000CD
:10F1500011F00C0F70B5044619D10369B3B18D06D7
:10F1600012D51A78002A3AD05D687DB1C268012AAA
:10F1700030D95B888168520803FB02F301EB43013D
:10F180002B46BDE870401847CA061AD470BDFFF779
:10F190008FFF23699B684BB1052222702046002116
:10F1A00098472378052B04BF022323700023236193
:10F1B00072B64FF0FF3104F11400FEF7F1FA62B6B7
:10F1C00070BD5B68002BE1D0C26881685208BDE861
:10F1D000704018472B468168BDE870401847FFF71C
:10F1E00067FF23695B6883B1042222702046A1680F
:10F1F000E26898472378042B07D072B6002104F107
:10F200001400FEF7CDFA62B670BD02220023227010
:10F210002361F2E700000000000000000000000091
:10F22000024A536843F400035360704700230140CF
:10F2300008B50648064A436801215B685161002110
:10F240009847BDE80840FEF773BD00BFF0130020EB
:10F25000003C014000000000000000000000000031
:10F2600008B50648064A43680221DB68516101215E
:10F270009847BDE80840FEF75BBD00BFF0130020D3
:10F28000003C014000000000000000000000000001
:10F2900008B50648064A436804215B6951610221AA
:10F2A0009847BDE80840FEF743BD00BFF0130020BB
:10F2B000003C0140000000000000000000000000D1
:10F2C00008B50648064A43680821DB6951610321F5
:10F2D0009847BDE80840FEF72BBD00BFF0130020A3
:10F2E000003C0140000000000000000000000000A1
:10F2F00008B50648064A436810215B6A516104213B
:10F300009847BDE80840FEF713BD00BFF01300208A
:10F31000003C014000000000000000000000000070
:10F32000184B10B55C6904F478725A61A30622D4B4
:10F3300060061AD4210612D4E2050AD4A30504D526
:10F34000114843680921DB6C9847BDE81040FEF77F
:10F35000EFBC0D48436808215B6C9847EEE70A480C
:10F3600043680721DB6B9847E6E7074843680621B7
:10F370005B6B9847DEE7044843680521DB6A9847E2
:10F38000D6E700BF003C0140F01300200000000061
:10F390001C4B10B55C6904F47C425A6162052AD4A6
:10F3A000230522D4E0041AD4A10412D462040AD49E
:10F3B000230404D5144843680F21DB6F9847BDE848
:10F3C0001040FEF7B5BC104843680E215B6F9847AC
:10F3D000EEE70D4843680D21DB6E9847E6E70A48E3
:10F3E00043680C215B6E9847DEE7074843680B21B2
:10F3F000DB6D9847D6E7044843680A215B6D984760
:10F40000CEE700BF003C0140F013002000000000E8
:10F4100008B50748074A43684FF48031D3F8843071
:10F42000516110219847BDE80840FEF781BC00BF3C
:10F43000F0130020003C014000000000000000002C
:10F4400008B50748074A43684FF40031D3F88C30B9
:10F45000516111219847BDE80840FEF769BC00BF23
:10F46000F0130020003C01400000000000000000FC
:10F4700008B50748074A43684FF48021D3F8943011
:10F48000516112219847BDE80840FEF751BC00BF0A
:10F49000F0130020003C01400000000000000000CC
:10F4A00008B50748074A43684FF40021D3F89C3059
:10F4B000516113219847BDE80840FEF739BC00BFF1
:10F4C000F0130020003C014000000000000000009C
:10F4D00008B50748074A43684FF48011D3F8A430B1
:10F4E000516114219847BDE80840FEF721BC00BFD8
:10F4F000F0130020003C014000000000000000006C
:10F5000008B50748074A43684FF40011D3F8AC30F8
:10F51000516115219847BDE80840FEF709BC00BFBE
:10F52000F0130020003C014000000000000000003B
:10F5300008B50748074A43684FF48001D3F8B43050
:10F54000516116219847BDE80840FEF7F1BB00BFA6
:10F55000F0130020003C014000000000000000000B
:10F56000062008B50146FFF723FA07200621FFF71A
:10F570001FFA08200621FFF71BFA09200621FFF7D2
:10F5800017FA0A200621FFF713FA17200621FFF7C2
:10F590000FFA28200621FFF70BFA01200621FFF7BA
:10F5A00007FA29200F21FFF703FA2A200621FFF787
:10F5B000FFF93E200621FFF7FBF94C200621FFF75B
:10F5C000F7F902200F21FFF7F3F903200F21BDE81F
:10F5D0000840FFF7EDB900BF000000000000000088
:10F5E0000148FEF76DBC00BFF013002000000000D2
:10F5F0000F29F0B420D9426852F83100C30734D53E
:10F60000224D0123AC688B401C43AC60DC431F4D92
:10F6100002EBC10110F0020FE8684A6814BF1843FA
:10F620002040E8604AB3194A11680B4313605368DD
:10F6300023405360F0BC704721F00303426803F19C
:10F64000804303F59C3352F831009F6801F00304B6
:10F65000A4000F26A640C0F3031527EA060605FA04
:10F6600004F434439C60C307CAD4084E0123B56830
:10F670008B40DC432540B560C9E7044A51680B4321
:10F680005360136823401360F0BC7047003C014096
:10F69000084B012218688A40D14308401860586816
:10F6A00008405860986808409860D8680140D96060
:10F6B0005A617047003C014000000000000000005B
:10F6C00038B50378012B054616D0002404E0013438
:10F6D000FFF78EFF172C0ED06B6853F8343013F001
:10F6E000040F28462146F2D1214628460134FFF76F
:10F6F000CFFF172CF0D138BDFFF732FFE5E700BF91
:10F70000F0B5434C434D236C43F000732364D5F8AC
:10F7100000321B0C1B0443F0010343EA0023C5F82D
:10F72000003200294ED00023C5F81C321846C5F817
:10F7300004321C46C5F80C32C5F81432C30003F17C
:10F74000804303F5C84301301C28C3F84042C3F886
:10F750004442F3D12F480026012715681479EB00A5
:10F7600003F1804314F0010F03F5C84306F10106CD
:10F7700007FA05F505D0D0F804E245EA0E0EC0F808
:10F7800004E214F0020F05D0D0F80CE245EA0E0EA8
:10F79000C0F80CE2640704D5D0F814422C43C0F83A
:10F7A00014429468C3F84042D468C3F84442D0F885
:10F7B0001C328E4243EA050302F11002C0F81C32EB
:10F7C000CBD118E0C20002F18042012302F5C84209
:10F7D000834043F00103C5F84012C5F84412C2F853
:10F7E0004012C2F84412C5F80412C5F81412C5F844
:10F7F0000C32C5F81C320749054AD1F8003223F013
:10F800000103C1F80032136C23F000731364F0BDE0
:10F8100000380240006400400000000000000000CA
:10F8200010B50A4C0A4AE36A9A6072B6002104F1E4
:10F830000800FDF7DDFF04F11C000121FEF700F9CF
:10F8400062B6BDE81040FEF773BA00BFF81300209F
:10F8500001010100000000000000000000000000A5
:10F8600038B5124DEB6ADC68A2070DD1E30607D567
:10F87000EB6A1021D96072B60D48FEF7E1F862B666
:10F88000BDE83840FEF754BA5A6922F002025A61C4
:10F8900072B6002105F11000FDF7AAFF05F118006E
:10F8A0000121FEF7CDF862B6E0E700BFF8130020B3
:10F8B00018140020000000000000000000000000FC
:10F8C00038B5124DEB6A1C69A2070DD1E30607D5C6
:10F8D000EB6A1021196172B60D48FEF7B1F862B6F5
:10F8E000BDE83840FEF724BA5A6922F010025A6186
:10F8F00072B6002105F11000FDF77AFF05F118003E
:10F900000221FEF79DF862B6E0E700BFF813002081
:10F91000181400200000000000000000000000009B
:10F9200038B5174DEB6A5C681C225A60220719D45F
:10F93000630713D5EA6A9369916921F070019161B7
:10F9400013F0700F03F0070118BF41F0080172B601
:10F950000C4841EA0341FEF773F862B6BDE838404F
:10F96000FEF7E6B91A68284622F00202032100F8E1
:10F97000281B1A6072B60021FEF762F862B6D7E75C
:10F98000F813002018140020000000000000000000
:10F9900010B5064C2046FEF763FA0021044BE362E3
:10F9A0000A460E20BDE81040FFF7AABEF81300205B
:10F9B00000640040000000000000000000000000A3
:10F9C0002DE9F04FDFF8B481DFF8B4C1D8F830A0EA
:10F9D000DFF8B0E1634F644E644D654C6549664A9B
:10F9E000DFF8A4B140F2FF194AEA090AC8F830A0CA
:10F9F000D8F850A04AEA0909C8F850904368CCF8F2
:10FA000004308368CCF80830C368CCF80C30036944
:10FA1000CCF814304369CCF820308369CCF824301A
:10FA20000368CCF80030036ACEF80430436ACEF89D
:10FA30000830836ACEF80C30C36ACEF81430036BFA
:10FA4000CEF82030436BCEF82430C369CEF80030B6
:10FA5000C36B7B60036CBB60436CFB60836C7B613E
:10FA6000C36C3B62036D7B62836B3B60876D776029
:10FA7000C76DB760076EF760476E7761876E376254
:10FA8000C76E7762476D3760466F6E60866FAE6097
:10FA9000C66FEE60D0F880606E61D0F884602E6230
:10FAA000D0F888606E62066F2E60D0F89050656066
:10FAB000D0F89450A560D0F89850E560D0F89C50EC
:10FAC0006561D0F8A0502562D0F8A4506562D0F8E6
:10FAD0008C502560D0F8AC404C60D0F8B0408C60C1
:10FAE000D0F8B440CC60D0F8B8404C61D0F8BC40FD
:10FAF0000C62D0F8C0404C62D0F8A8400C60D0F83E
:10FB0000C8105160D0F8CC109160D0F8D010D160FE
:10FB1000D0F8D4105161D0F8D8101162D0F8DC10B0
:10FB20005162D0F8C4101160D0F8E420CBF8042062
:10FB3000D0F8E820CBF80820D0F8EC20CBF80C2047
:10FB4000D0F8F020CBF81420D0F8F420CBF8202007
:10FB5000D0F8F820CBF82420D0F8E020CBF8002013
:10FB6000BDE8F08F00080240000C02400010024087
:10FB70000014024000180240001C024000380240FD
:10FB8000000002400004024000200240000000008B
:10FB90002DE9F04F4FF00F0C02F0030EC2F3800777
:10FBA000C2F3C106C2F341150024C2F3C3124FF0E1
:10FBB00001094FF003082BE0D0F820B02BEA030333
:10FBC00043EA0A030362436809FA04FA23EA0A03D0
:10FBD0003B4343604FEA440A836808FA0AFA6FEA33
:10FBE0000A0A0AEA030333438360C3680AEA030389
:10FBF0002B43C36003680AEA030343EA0E0303606E
:10FC0000490819D07F00B600AD004FEA8E0E0134CE
:10FC100004F007039B0011F0010F02FA03FA0CFA3B
:10FC200003F3EDD0072CC7D9D0F824B02BEA030397
:10FC300043EA0A034362C6E7BDE8F08F0000000014
:10FC400038B5446B384AA369656945EA034323F034
:10FC50007F4393424BD01BD8073A93423BD00132AB
:10FC6000934210D16268C36A22F400721B6862601A
:10FC70001A6842F001021A60626842F480526260BF
:10FC80005B68012B4AD915F00A0F18BFA36938BD6C
:10FC9000264A934210D002329342F4D1C36A1B68C1
:10FCA000596800292CD0028C236842F0010243F4E9
:10FCB000A0630284236038BD6368026B23F4007381
:10FCC00012686360136843F00103136015F00A0FB4
:10FCD00018BFA36938BD038C1A0A0BD003F00103C7
:10FCE00043F0F00302F0060213432361CBE7038CD9
:10FCF000C3F34703236115F00A0F18BFA36938BD8A
:10FD0000636823F400736360236843F40073236023
:10FD100072B61C30FDF744FD62B6B4E7236823F4E5
:10FD200080632360AFE700BF080003008200070084
:10FD300070B5056B2A68136823F01F0313601368FE
:10FD4000DE07FCD42E7AC46A6D6822683D23B34076
:10FD50002B60136823F01F031360136813F0010373
:10FD6000FBD1257A64683D22AA40CD05226048BFB8
:10FD700001238C05836044BF43F0020383604A057E
:10FD80000BD5426B546824F400745460146843F03B
:10FD9000040344F40074146083600E0544BF43F010
:10FDA000080383604D0444BF43F020038360CC0408
:10FDB0000CD543F01003090483600CD472B66FF0C5
:10FDC00001011C30FDF7ECFC62B670BD0A0402D4E0
:10FDD000002BF3D170BD43F040038360EEE700BF1A
:10FDE00011F00C0F38B50546446B12D1296B0A6827
:10FDF000136823F01F0313601368DB07FCD4087A31
:10FE00004A683D2383401360636843F40073636072
:10FE100038BD0248FDF70CFAE8E700BF706701083B
:10FE200011F00C0F38B50546446B21D1EA6A13680E
:10FE3000196821F01F011960196811F00101FBD147
:10FE4000107A52683D2383401360636823F4805323
:10FE50006360236823F480632360236843F40073A2
:10FE6000236072B605F11C00FDF79AFC62B638BD3E
:10FE70000148FDF7DDF9D9E77067010800000000CF
:10FE800008B50348FFF7DCFEBDE80840FDF750BFAA
:10FE90002814002000000000000000000000000006
:10FEA0000748426B516908B589B201F45F43DB43EF
:10FEB0005361FFF73DFFBDE80840FDF739BF00BFC4
:10FEC00028140020000000000000000000000000D6
:10FED00008B50348FFF7B4FEBDE80840FDF728BFAA
:10FEE000601400200000000000000000000000007E
:10FEF0000748426B516908B589B201F45F43DB439F
:10FF00005361FFF715FFBDE80840FDF711BF00BFC3
:10FF1000601400200000000000000000000000004D
:10FF2000F8B50D4E0D4D0E4C3046FDF7F9FF0D4B5B
:10FF30007363002704F148032846F4623363F761D2
:10FF4000FDF7EEFF04F11803074AEF6154346A63CA
:10FF5000EB622C63F8BD00BF281400206014002061
:10FF6000B066010800540040005800400000000046
:10FF70002DE9F8430378456B40F256428262012B2B
:10FF800040F216420446426243D02B46E16A226B9D
:10FF90006068D1F80090D2F80080446890F808E0DA
:10FFA000644E05F110014FF410674FF4004C00222D
:10FFB000C9F80810C8F80810C5F800C02A606F60BA
:10FFC0005F684FF6C071394059605968B44241F0DA
:10FFD0002A01596054DD58498C4209DCBEF1020FF8
:10FFE0006DD0BEF1030F5DD048F6FF720D2119628E
:10FFF000DA6101781A68022992B24DD0032948D0FB
:020000040801F1
:10000000012939D01A602B6843F001032B60BDE849
:10001000F8834A4B984260D0494B9842B5D1494E3B
:10002000C06A336A484A43F48003002733620521DB
:1000300023463762FEF78CFE444A206B0521234697
:10004000FEF786FE336C43F48003336421200521E0
:10005000FEF7AEFC05212220FEF7AAFC616AA26A27
:10006000636B41F0606142F0606241F4403142F400
:1000700040326162A26289E722F00A0292B2C1E7CD
:100080002B216400324A1962B2FBF4F2C2F30B0274
:10009000AEE742F00A02B5E722F0080292B242F05F
:1000A0000202AFE704EB840202EB8204284AB2FBAF
:1000B000F4F26FEA82426FEA924292B296E701F15D
:1000C0001E7104EB440201F53131B1FBF2F26FEA2B
:1000D00042426FEA524292B288E71A4EC06A336ACD
:1000E000194A43F40013002733620521234637627F
:1000F000FEF72EFE154A206B05212346FEF728FE4B
:10010000336C43F4001333641F200521FEF750FCC9
:1001100005212020FEF74CFC616AA26A636B41F066
:10012000007142F0007241F4403142F440326162A9
:10013000A2622BE7A0860100801A06002814002086
:10014000601400200038024021FE0008E1FD000894
:1001500080DE8002000000000000000000000000BF
:100160002DE9F043490000240184846094469846B8
:10017000446BDDF81C900899DDF824E062B6056B4D
:10018000C26A2F681668836A426A154D3B60C7F8D9
:100190000CC0C7F804803260C6F80C907160AA6A7F
:1001A00000E062B672B6A369990702D423689B0582
:1001B00008D5AB6A9B1AB3F5FA7FF2D34FF0FF3044
:1001C000BDE8F083636843F400736360236843F41D
:1001D0008073714623601C30BDE8F043FDF7D0BA50
:1001E000B810002000000000000000000000000027
:1001F0002DE9F04FA74BA84A9B69D0F850A09A610F
:1002000085B072B600F16003D346039382469AF834
:100210000030012B06D0DAF85C3063B9DBF814301B
:10022000DA0608D4DBF81830039843F01003CBF853
:100230001830FDF795FA62B64FF00008DBF814307D
:10024000DB0623D5DAF85020136A03F4F011B1F578
:10025000802F2ED0B1F5402FF0D103F00F010AEB23
:100260008101C3F30A13C96803339B080C6AE5D004
:1002700002F580520221106811B144F8040B0139D3
:10028000013BF8D1DBF81430DB06DBD40122DAF8CD
:100290005C3002FA08F21A42019262D108F10108B8
:1002A000DAF854309B685FFA88F89845C6D972B678
:1002B000ADE703F00F050AEB8505C3F30A14EB68FD
:1002C00098690378DBB943688168C6680333591AB3
:1002D000E31C9B084FEA910109D002F58052B64613
:1002E000176811B14EF8047B0139013BF8D126445F
:1002F000C660EB689A699368234493609EE7C06880
:1003000024B302F580522646032E416907D90369BA
:10031000994204D3C3684361032E4169F7D8D2F8E8
:1003200000E0002701F1010C2EFA07F3C0F814C019
:100330000B7003694169994224BFC3684361013E60
:1003400004D0182FE0D008374169EBE772B6836814
:10035000234483600021FDF74BFAFDF711F962B6E3
:10036000C7E772B6DBF80820DAF85C30019922F0B2
:10037000010223EA0103CBF80820CAF85C3062B618
:100380000AEB8809D9F80C0041698A684B689A42DF
:1003900080F0A980DAF85060078A4FEA48100446D6
:1003A00030189B1AD0F818299F4228BF1F4693B2D5
:1003B000B7EB830F08F101082ED8CDF808B0A3469B
:1003C0000B78002B39D1FB1CCC689B0806EB083658
:1003D00018BF224604D052F8040B3060013BFAD11A
:1003E0003C44CC60D9F80C0041698B684A683B44B6
:1003F0009A428B6073D9DAF85060008A06EB0B04DE
:10040000D71AD4F81839874228BF07469BB2B7EBF2
:10041000830FD5D9DDF808B0002272B6DBF80830BA
:1004200043F00103CBF808302AB9DBF83438019ADD
:100430001A43CBF8342862B632E706EB0836C868B0
:10044000E7B1D0F810E03A46930827D1836900213C
:100450000C465D1C85611B78754503FA01F344EA7F
:10046000030424BFC3688361013A04D0182902D071
:1004700008318369EDE73460002AE5D172B68368FC
:100480003B4483600021FDF7B3F9FDF779F862B6CC
:10049000A8E700BFB8100020906701088469BEEB90
:1004A000040148BF033189108B4228BF0B464FEA35
:1004B000830CCCEB020233B1214651F8045B35606A
:1004C000013BFAD16444A645846104D8C3688361C2
:1004D000002AB9D1D2E7002AD0D02346B7E7DDF809
:1004E00008B0012299E708F10108FAE700000000CE
:1004F000F0B50024D1F808E025464FF0804C4FF0CD
:10050000FF3714E0C1F80059C218C2F81059C2F8F8
:100510000879D1F8006B002E17DBC1F8005B0344AB
:100520000134A645C3F8105BC3F8087B14D36301FC
:10053000C118D1F80029002AE4DAC1F800C90E4632
:10054000D6F808299207FBD5DEE7C1F800CBD2F830
:10055000081BC906FBD5E2E74FF00113C0F81C38B1
:10056000F0BD00BF0000000000000000000000001F
:1005700010B5064C2046FDF733FF4FF0A043044A68
:100580002365002362652366636610BD981400200E
:10059000806701080000000000000000000000006B
:1005A00070B50378066D012B82B001D002B070BD2A
:1005B000304B9842054618BF34463AD000232E48A7
:1005C0002E49EB654FF43412F060C6F80018202075
:1005D000C6F8003EB263FCF75BFE0123236123698A
:1005E000DB07FCD40C20FCF753FE2369002BFCDA5C
:1005F0000024B460286D696DFFF77AFF6B68C6F858
:100600001048DB68C6F81448C6F81C486BB143F2C2
:100610000803B3616B6E4FF0FF327261D3B1B36800
:1006200043F00103B36002B070BD4FF44053B361B7
:10063000F0E7134B5A6B42F080025A635A6900216B
:1006400042F080025A61432059610E21FEF7B0F951
:100650002C6DB3E74FF4067102220A4B009505F1A9
:100660006800FCF7D5FF6866FCF7AAFEFCF788FF78
:10067000D5E700BF9814002040140040030020027A
:1006800000380240F10101080000000000000000F5
:10069000F8B5056D202307462B612B6913F0200464
:1006A000FBD10C20FCF7F4FDD7F854E0DEF808602D
:1006B00023464FF00060FF2105EB43120133B342A4
:1006C000C2F80009C2F8000BC2F80819C2F8081BEA
:1006D000F2D9DEF800304FF0FF324FF00111C5F8CB
:1006E00018283A6DC5F81C18BB65DEF800306B623F
:1006F00010231361136913F01004FBD10C20FCF7D5
:10070000C7FDD5F80038114A114823F4FE63C5F837
:100710000038AB6943F4402343F010030921AB6177
:10072000C5F81018C5F81418F860C5F8104BC5F8CE
:10073000002BC5F81049C5F80029BB6D03F1100264
:1007400043F48013BA65AB62F8BD00BF408000106F
:10075000A067010800000000000000000000000089
:10076000026D90F84E10D2F8003823F4FE6343EA8D
:100770000113C2F8003870470000000000000000BC
:100780002DE9F0410FFA81F800EB88070D46FB6870
:10079000046D1A6802F00302022A5CD0032A5CD0BE
:1007A0004A4E4B49012A18BF0E466A01D96804EB2C
:1007B000020E4FF0000CCEF810CB002971D0B3F828
:1007C00012E005F15801490146EA0E0E44F801E035
:1007D00005F1100CD4F81C184FF0010E0EFA0CFEA7
:1007E0004EEA0101C4F81C18224499684FF0000E2B
:1007F000C2F810E999B3998B1A8A01294FEA92033A
:1008000088BF4B4305F13F0E816D04EB8E0EAA01AC
:1008100003EB010C42F0200241EA0343C0F858C048
:10082000CEF80430226123699A06FCD40C20FCF730
:100830002FFDFB681A8A05F148035B0142EA8552E5
:100840003243E2500123D4F81C28AB401343C4F8D0
:100850001C38BDE8F0811F4EA7E71F4EA5E705F144
:100860003F0204EB8202AB011C49516043F02003BC
:10087000236123699B06FCD404EB48180C20FCF789
:1008800007FDD8F8002922F40042C8F80029D4F85E
:100890001C280123AB4022EA0303C4F81C38BDE83E
:1008A000F08104EB481105F1100CD1F800EB2EF4A7
:1008B000004EC1F800EBD4F81C184FF0010E0EFAF0
:1008C0000CFE21EA0E01C4F81C188DE7008004100C
:1008D000008000100080081000800C10000400024E
:1008E0005831036D49015B5813F4004004D013F4F0
:1008F000001F14BF01200220704700BF000000004D
:100900004831036D49015B5813F4004004D013F4DF
:10091000001F14BF01200220704700BF000000002C
:1009200000EB8101CB681B6A19685B68536011603A
:10093000704700BF00000000000000000000000041
:1009400000EB810330B4DD68AC696368236131B9C1
:10095000402B04D940236360094A3F2402E05C1E17
:1009600043F0C042006D6D8A00EB41116319B3FB87
:10097000F5F342EAC343C1F8103B30BC704700BFF7
:1009800040000060000000000000000000000000C7
:100990002DE9F041244E376D07EB40130546D3F89F
:1009A000084BC3F8084B200703D5D7F814381907AC
:1009B0001DD4E20719D5D7F81438DB0715D506EB97
:1009C0008506194CF1688B6958681A69904216D3EC
:1009D0006289CE680123AB4022EA03036381294682
:1009E00020463346BDE8F0411847BDE8F08106EBEC
:1009F00085033046DB6829465B689847D9E7121AB9
:100A0000002199605A6020462946FFF799FF72B687
:100A1000236D03EB4515D5F8003B43F08063C5F823
:100A2000003B62B6BDE8F081981400200000000091
:100A300000EB810310B4DC68626953681361ABB1E9
:100A400071B15A1E006D248A00EB41112244B2FBA1
:100A5000F4F243EAC243C1F810395DF8044B704721
:100A6000402BEED9402353603F22EBE7036D5DF846
:100A7000044B03EB41114FF40023C1F810397047C8
:100A8000F8B52B4F3D6D05EB40130646D3F80849EA
:100A9000C3F80849E10703D5D5F81038DA0708D4B8
:100AA000230605D50123D5F83428B340134223D1BA
:100AB000F8BD07EB8003D9684B6958681A69904202
:100AC0002AD2121A002199605A6038463146FFF73F
:100AD000AFFF72B63B6D03EB46100122D0F8001950
:100AE00041F00441C0F80019D3F83418B2400A4369
:100AF000C3F8342862B6D3E772B6D5F83418FA6D65
:100B00000C4821EA0301C5F8341813430021FB65A2
:100B1000FCF746FE62B6F8BD3A89D1F808C0012359
:100B2000B34022EA03033B8138463146E047B7E74A
:100B300098140020F81400200000000000000000BD
:100B400070B5384E356D6B69AC691C40E1046C6161
:100B50002DD4A20448BFD5F80838230704D57368FC
:100B6000DB680BB12F489847E6062BD46003D5F815
:100B7000185807D5E90741D4AA0744D46B0747D4CE
:100B80002E074AD4240307D5E8032CD4A9032FD475
:100B90006A0322D42B0303D4BDE87040FDF7C8B824
:100BA0000320FFF7F5FEBDE87040FDF7C1B8304601
:100BB000FDF7A6FC73681B68002BCAD030460021E5
:100BC0009847C6E772B6AB69174823F01003AB61CC
:100BD0000021FCF7E5FD62B6C8E70220FFF7D8FE6A
:100BE0002B03D9D5DCE70020FFF7D2FEA903CFD530
:100BF0000120FFF7CDFE6A03CCD5EEE70020FFF71A
:100C00003FFFAA07BAD50120FFF73AFF6B07B7D518
:100C10000220FFF735FF2E07B4D50320FFF730FF82
:100C2000B0E700BF98140020F81400200000000076
:100C3000036D03EB4111D1F8003B43F08063C1F831
:100C4000003B7047000000000000000000000000B2
:100C5000036D10B403EB41140122D4F8000940F0F5
:100C60000440C4F80009D3F834085DF8044B8A4006
:100C70000243C3F834287047000000000000000061
:100C8000036D03EB4111D1F8003B43F40013C1F8AD
:100C9000003B704700000000000000000000000062
:100CA000036D03EB4111D1F8003943F40013C1F88F
:100CB0000039704700000000000000000000000044
:100CC000036D03EB4111D1F8003B23F40013C1F88D
:100CD000003B704700000000000000000000000022
:100CE000036D03EB4111D1F8003923F40013C1F86F
:100CF0000039704700000000000000000000000004
:100D000011F00C0F00D170470148FCF791BA00BFF9
:100D100070670108000000000000000000000000F3
:100D200011F00C0F38B5044630D1606A02681368C0
:100D300023F01F0313601368D907FCD4057A216AD6
:100D400040680A683D23AB400360136823F01F032B
:100D500013601368DB07FCD46368087A1A68496873
:100D60003D2383400B6072B10423237020469047DB
:100D70002378042B07D072B6002104F10800FCF799
:100D80000FFD62B638BD02232370F4E70148FCF77B
:100D90004FFACAE770670108000000000000000079
:100DA00010B50A4C0A4B4FF6FF7220461A80FDF729
:100DB000B7FA084B08480949094AE06103F10C00F9
:100DC00023626062A162E26210BD00BF381700209A
:100DD00034170020D46601080038004016000100D6
:100DE00046000100000000000000000000000000BC
:100DF0000378012B10B504461DD0C3696268A06A50
:100E00005289E16A20F4F04021F4F04112F4006FBD
:100E10001CBF40F4205041F42051A062E16242F432
:100E200041720020072118601A6059601A6842F068
:100E300040021A6010BD0F4B984209D0216A626AC5
:100E4000E3690868116803F10C0282608A60D5E7E3
:100E5000094A006A0A212346FDF77AFF074A606AB9
:100E600023460A21FDF774FF054A136C43F48043BF
:100E70001364E3E738170020210D0108010D010874
:100E800000380240000000000000000000000000E8
:100E9000436819895A6801238B409BB2538370477A
:100EA000436819895A6801238B409BB213837047AA
:100EB000F0B4046A476A866AC56A24683868E360E1
:100EC00046F4806645F4806561602660C2604160DA
:100ED0000560236843F001032360036843F00103C6
:100EE0000360F0BC704700BF00000000000000007D
:100EF00070B4436A046AC56A24681B68806A094E34
:100F0000E66045F4806561602060DA6059601D60CC
:100F1000226842F0010222601A6842F001021A605F
:100F200070BC70476817002000000000000000003F
:100F300070B4436A046A856A24681B68C06A094EF3
:100F4000E26045F4806561602560DE60596018608C
:100F5000226842F0010222601A6842F001021A601F
:100F600070BC704734170020000000000000000033
:100F700038B5174DAB691A69DC681440E2B2D24348
:100F80001A61A30704D56B681B690BB12846984703
:100F9000600704D56B689B690BB10D489847210722
:100FA00004D56B681B6A0BB109489847E20604D563
:100FB0006B689B6A0BB106489847E30704D56B68DA
:100FC0009B680BB102489847BDE83840FCF7B0BEBB
:100FD0006C1700200000000000000000000000006E
:100FE00010B5044C2046FCF7EBFF0422024B2274A0
:100FF000A36110BD6C170020000400400000000039
:10100000FDF726BF00000000000000000000000007
:10101000704700BF0000000000000000000000005A
:1010200010B504460846FCF74BFE00B110BD0C237A
:1010300023604FF0FF3010BD0000000000000000F2
:1010400038B5284C284D20464FF400710022FEF799
:101050009FFD20464FF480610022FEF799FD204657
:101060004FF400610022FEF793FD20464FF48051BB
:101070000022FEF78DFD20464FF400510022FEF7BE
:1010800087FD20464FF480410022FEF781FD4FF49A
:101090008051298328461922FEF77AFD28464FF40D
:1010A000005140F29A22FEF773FD28464FF480412A
:1010B00040F28222FEF76CFD284640F29A224FF45D
:1010C0000041FEF765FD09480949FDF731F94FF088
:1010D0000043A36120464FF400411922BDE8384087
:1010E000FEF756BD000C02400004024038170020F5
:1010F000D0680108000000000000000000000000AF
:1011000000B585B004AA012102F8090D0DF10F0305
:101110000348FDF72DF99DF80F0005B05DF804FBBD
:101120003817002000000000000000000000000050
:1011300038B5074C05462046FDF70AF92846FFF763
:10114000DFFF05462046FDF70BF9284638BD00BFF6
:101150003817002000000000000000000000000020
:1011600038B50B4C05462046FDF7F2F8280A40F04A
:101170001000FFF7C5FFE8B2FFF7C2FF0020FFF73E
:10118000BFFF05462046FDF7EBF8284638BD00BFF7
:1011900038170020000000000000000000000000E0
:1011A000F8B50B4C054620460F46FDF7D1F8280A46
:1011B00040F02000FFF7A4FF0646E8B2FFF7A0FFCB
:1011C0003846FFF79DFF2046FDF7CAF83046F8BDC8
:1011D00038170020000000000000000000000000A0
:1011E000F8B50D4C064620460D46FDF7B1F8300A1D
:1011F00040F02000FFF784FF0746F0B2FFF780FFC2
:10120000E8B2FFF77DFF280AFFF77AFF2046FDF7D7
:10121000A7F83846F8BD00BF3817002000000000CE
:1012200070B5044609480E46FDF792F83020FFF7E6
:1012300067FF054624B1214632460448FDF7B8F859
:101240000248FDF78DF8284670BD00BF3817002012
:1012500038B5084C2046FDF77BF83020FFF750FFEB
:101260000020FFF74DFF05462046FDF779F8284698
:1012700038BD00BF3817002000000000000000004B
:1012800070B5044609480E46FDF762F83A20FFF7AC
:1012900037FF054624B1214632460448FDF778F869
:1012A0000248FDF75DF8284670BD00BF38170020E2
:1012B00070B5084C06462046FDF74AF85820FFF75F
:1012C0001FFF05463046FFF71BFF2046FDF748F895
:1012D000284670BD38170020000000000000000004
:1012E00038B5094C05462046FDF732F845F0800038
:1012F000FFF706FF0020FFF703FF05462046FDF736
:101300002FF8284638BD00BF381700200000000025
:1013100070B5094C064620460D46FDF719F846F013
:10132000C000FFF7EDFE2846FFF7EAFE2046BDE8C5
:101330007040FDF715B800BF38170020000000000E
:1013400008B5074B074A9B690749084C9961136028
:101350000120FCF795FB2368002BF9D09847F7E7AD
:10136000B8100020201D0020E0680108241D002086
:10137000014B1878704700BF3608002000000000BD
:1013800000EB8000A0F12C01C9B22E20FFF7C0BFF6
:1013900001464FF47D70FFF723BF00BF000000003F
:1013A000014640F2F230FFF71BBF00BF0000000013
:1013B000034608461946FFF763BF00BF0000000060
:1013C000034608461946FFF72BBF00BF0000000088
:1013D00038B51B4A13691905FCD522200221FFF7F5
:1013E00097FF17484FF400610022054640F2F314BE
:1013F000FEF7CEFB04E0013CA4B2FCF781F9CCB1CE
:101400004420FFF795FE2B695A054FF00100F2D5F5
:1014100084B10B4A13691B05FCD5002422202C2122
:10142000FFF776FF06484FF400610022FEF7B0FB9D
:10143000204638BD4820FFF77BFE0124EEE700BFC1
:10144000000C02400000000000000000000000004E
:10145000024B18608820FFF72BBF00BF241D00201F
:1014600008B58820FFF724FF02480921BDE808409D
:10147000FCF746BDF0130020000000000000000053
:1014800070B52B4E2B4D2C4C82B04021192230468A
:10149000FEF77EFB4023B361FFF7E2FF4FF000430E
:1014A000AB612648FCF75CFF1420FCF729F92046C5
:1014B00040F282224FF48041FEF76AFB4FF4004273
:1014C0004FF08053AA612646A361322405E0FCF761
:1014D00017F9631E13F0FF0423D03369164D5B0424
:1014E0004FF00100F3D54FF48053154CAB612078D9
:1014F00030B16178FFF754FE14F8020F0028F8D1DC
:10150000002300934FF4B3610E4B0F484222FCF7C7
:10151000B7F84620FFF724FE853818BF012002B037
:1015200070BD4FF480530120AB6102B070BD00BFAD
:1015300000080240000C024000040240381700205E
:10154000080800204113010888170020000000004F
:1015500010B5FFF785FF4720FFF7EAFD3E20FFF7B4
:10156000BFFE04464220FFF7E3FD3E20FFF7B8FE32
:10157000A04202D04720FFF7DBFD03480921BDE868
:101580001040FCF7B5BC00BFF013002000000000C5
:1015900010B5FFF765FF4720FFF7CAFD3E20FFF7B4
:1015A0009FFE04464520FFF7C3FD3E20FFF798FE4F
:1015B000A04202D04720FFF7BBFD03480921BDE848
:1015C0001040FCF795BC00BFF013002000000000A5
:1015D00008B5FFF745FFFFF73BFE4720FFF7A8FDE3
:1015E0004720FFF7A5FD03480921BDE80840FCF7A7
:1015F0007FBC00BFF01300200000000000000000CE
:1016000008B572B6034B01211868FCF701FA62B6FF
:1016100008BD00BF201D00200000000000000000E9
:1016200010B572B60F4C22202A21FFF771FE00225E
:1016300020464FF40061FEF7ABFA23691A0505D581
:101640000120FCF75DF823691B05F9D422202C2129
:10165000FFF75EFE03484FF400610022FEF798FAA0
:1016600062B610BD000C0240000000000000000047
:10167000884228BF084670470000000000000000B4
:1016800008B50C4B0C4A9B690C4C9A6102E00A208D
:10169000FCF736F82369DB04F9D50948FCF780F933
:1016A000FFF796FF8620FFF703FE0548FCF780F959
:1016B000EDE700BFB810002020690108000C0240CF
:1016C0006820002000000000000000000000000072
:1016D00038B52848284CFCF763F98820FFF7E8FD67
:1016E00001212046FFF76CFE217801F07F010529DA
:1016F000217021D0214DA1F10B03DBB2601CAB7135
:10170000FFF75EFE61782289C1F3401004F10A03FD
:1017100028736A80AB60AA68AB795BB2D018D35CDF
:101720006B7390F90130002BE37819DB2B701148B3
:10173000BDE83840FCF73CB9601CFFF741FE637818
:1017400094F905200D49C3F34013002A0B73EEDA18
:101750000B4BE1781A789142E9D101225A70E6E701
:101760002A789A42E2D001F0DF01412904BF012228
:10177000AA73DBE768200020381D0020281D002008
:1017800060200020000000000000000000000000B9
:1017900070B582B00646FFF773FE012827D01548C2
:1017A000154DFCF78DF81548FCF78AF81449154BD0
:1017B0002E60012200248C609A705C603079FFF703
:1017C000DFFD2B68188880B2FFF7E2FD2B68588890
:1017D00080B2FFF7E5FD0C48FFF73AFE00940B4896
:1017E0000B4B4FF426714022FBF74AFF204602B014
:1017F00070BD00BF6820002078200020502000200D
:10180000281D002060200020D1160108B81D0020EE
:101810008116010800000000000000000000000028
:10182000014B987B704700BF281D0020000000007E
:101830002DE9F041114D80460E4611481746FCF740
:10184000AFF8AC68A8793146FFF712FF214602468F
:101850004046FBF775F837B16C7BFFF789FDE4B2C2
:10186000201A40B2388000230548AB73FCF7A0F87B
:10187000A8793146BDE8F041FFF7FABE281D0020E7
:1018800068200020000000000000000000000000B0
:1018900010B5074C2046FCF783F8064B01229A70DE
:1018A000FFF756FE2046BDE81040FCF781B800BFA8
:1018B00068200020602000200000000000000000E0
:1018C00010B5074C2046FCF76BF8064B00229A70C7
:1018D000FFF75EFE2046BDE81040FCF769B800BF88
:1018E00068200020602000200000000000000000B0
:1018F0002DE9F041364D804636480C461746FCF738
:101900004FF8AB78002B5FD038466721324EFFF797
